:020000040800F2
:10000000E0050020AD0100081724000819220008AF
:1000100015240008B10900083D2800080000000070
:100020000000000000000000000000001B24000889
:10003000650A000800000000192400081D240008BB
:10004000C7010008C7010008C7010008C701000870
:10005000C7010008C7010008C7010008C701000860
:10006000C7010008C7010008C7010008C701000850
:10007000C7010008C7010008C7010008C701000840
:10008000C7010008C70100087D0800080000000043
:10009000000000000000000000000000C701000890
:1000A000C7010008C7010008C7010008C701000810
:1000B000BD240008C9240008D5240008C701000891
:1000C000C7010008C7010008C7010008C7010008F0
:1000D000C701000831280008C7010008000000001F
:1000E000C7010008C7010008C701000800000000A0
:1000F000000000000000000000000000C701000830
:1001000000000000C7010008C7010008C70100087F
:1001100000000000000000000000000000000000DF
:10012000B5090008C7010008C7010008C701000899
:10013000C7010008000000000000000000000000EF
:10014000000000000000000000000000C7010008DF
:10015000C7010008C7010008C7010008C70100085F
:10016000C7010008C70100080000000000000000EF
:10017000000000000000000000000000000000007F
:1001800000000000C701000800000000000000009F
:10019000C7010008C7010008DFF80CD000F0E8FA3A
:1001A00000480047C5310008E005002006488047A8
:1001B00006480047FEE7FEE7FEE7FEE7FEE7FEE74C
:1001C000FEE7FEE7FEE7FEE7A1240008990100082C
:1001D0002DE9F05F0546002092469B46884606467C
:1001E000814640241BE0284641464746224600F00F
:1001F00009FA53465A46C01A914110D3114618467F
:10020000224600F0F0F92D1A67EB01084F4622460E
:100210000120002100F0E7F917EB00094E41201EF4
:10022000A4F10104DFDC484631462A464346BDE8D6
:10023000F09FD2B201E000F8012B491EFBD27047BB
:100240000022F6E710B513460A4604461946FFF7A2
:10025000F0FF204610BD2DE9FE4F804681EA0300E5
:10026000C00F0C46009021F0004123F00045B8EB90
:100270000200A94105D24046214690461C460B4645
:10028000024623F00040104347D0270DC7F30A0071
:10029000C3F30A510290401A019040286BDAC3F36D
:1002A000130040F4801B0098924620B10023D2EB4B
:1002B000030A63EB0B0B01985946C0F1400250460C
:1002C00000F091F906460D4650465946019A00F055
:1002D000A9F910EB08006141002487EA115284EA71
:1002E000E7731A4340D0009A62B3019A012A4FEA99
:1002F000075215DC001B61EB02014FF0004202EADD
:100300000752CDE90042001C41F5801132462B46D0
:1003100000F0E0F903B0BDE8F08F40462146F9E770
:10032000001B61EB0201001C41F5801300185B41CA
:100330002018A2F5001747EB030140EAD570B61963
:100340006D4111E06D084FEA360645EAC0754FEA87
:100350000752001B61EB0201001C41F580114908A6
:100360004FEA30000019514132462B4603B0BDE838
:10037000F04F00F0A0B90098012240000023D0EB1C
:10038000020263EBE073009821464FEAE074B8EB99
:10039000000061EB0401E9E783F000435BE781F0D3
:1003A000004158E72DE9FE4F81EA030404F00044C0
:1003B00021F0004100944FF0000B23F0004350EA7D
:1003C00001045ED052EA03045BD0C3F30A54C1F3C4
:1003D0000A552C44A4F2F3340194A0FB0254C1F357
:1003E000130141F48011C3F3130343F4801301FBA1
:1003F000024400FB034E840A970A44EA815447EA08
:100400008357A4FB076802958D0A05FB07854FEA11
:10041000932C04FB0C542705029D4FEA065847EA2B
:100420001637B5EB08056EEB070C870E920E47EA00
:10043000811742EA8312A7FB0201B6EB0B0164EBC2
:1004400000042B0D43EA0C335E1844EB1C50DA46D3
:100450005146E7FB0201C5F313044FEA0B3343EAAD
:1004600014534FEA0432019C43EA0603A4F10C043E
:100470000294009CCDE900B400F02CF903B0BDE873
:10048000F08F00200146F9E72DE9F04D81EA0304E1
:1004900004F0004B21F0004514464FF0000A23F011
:1004A000004150EA050220D054EA01021DD0C5F3F4
:1004B0000A570246C5F31303C1F31300C1F30A56EA
:1004C00040F4801543F48013A7EB0608101BD646B2
:1004D00008F2FD3873EB050002D308F1010801E0D2
:1004E00092185B41B8F1000F03DA00200146BDE825
:1004F000F08D00204FF48011064684460EE0171B55
:1005000073EB050705D3121B63EB050306434CEAA7
:10051000010C49084FEA300092185B4150EA01078C
:10052000EDD152EA030012D082EA040083EA050109
:10053000084305D0101BAB4106D20122002306E080
:1005400000224FF0004302E06FF0010253101AEB5B
:1005500006004CEB085110EB0A0041EB0B01BDE823
:10056000F04D00F0A8B80EB5C10F80EAE070084465
:10057000CA07002140F233438DE80E000A460B46BD
:1005800000F0A8F803B000BD00F0004230F00040D9
:100590000AD0C10D01F56071C0F3160042EA0151A5
:1005A000C20840071143704700200146704701F020
:1005B000004330B421F0004150EA010206D00A0D98
:1005C000A2F56072C1F31301002A02DC30BC0020E6
:1005D0007047440F44EAC104C100E01830BC00EB8E
:1005E000C25000F031B8202A04DB203A00FA02F1B0
:1005F000002070479140C2F1200320FA03F3194311
:1006000090407047202A04DB203A21FA02F00021B2
:10061000704721FA02F3D040C2F120029140084312
:1006200019467047202A06DBCB17203A41FA02F020
:1006300043EAE07306E041FA02F3D040C2F120023F
:1006400091400843194670470029A8BF7047401CD5
:10065000490008BF20F00100704710B4B0FA80FCD8
:1006600000FA0CF050EA010404BF10BC704749B115
:10067000CCF1200421FA04F411FA0CF118BF012185
:1006800021430843A3EB0C01CB1D4FEA00614FEA65
:10069000102042BF002010BC704700EBC350104434
:1006A0000029A4BF10BC7047401C490008BF20F0BF
:1006B000010010BC704710B5141E73F1000408DA75
:1006C000401C41F1000192185B411A4301D120F016
:1006D000010010BD2DE9F04D92469B4611B1B1FAD3
:1006E00081F202E0B0FA80F220329046FFF77BFF01
:1006F00004460F4640EA0A0041EA0B0153465A46B7
:10070000084313D0114653EA010019D0C8F1400242
:100710005046FFF777FF05460E465046594642467B
:10072000FFF761FF084305D0012004E02046394669
:10073000BDE8F08D0020054346EAE0762C433743C0
:100740000A986305E40AA0EB08000022FD0A44EAC7
:1007500047540A3002D500200146E9E70105101987
:100760006941DDE9084500196941BDE8F04DA2E79E
:10077000064C074D06E0E06840F0010394E80700EE
:1007800098471034AC42F6D3FFF70AFD90330008C7
:10079000B03300080EB540F2334102910021CDE99B
:1007A00000110A460B46FFF795FF03B000BD70B578
:1007B000C1F30A5201F000450024C1F3130140F2D5
:1007C000FF3341F480119A4201DA002070BD40F2FB
:1007D00033439A42A2F2334203DC5242FFF712FF44
:1007E00000E090402C43F1D0404270BD10B501466E
:1007F000806B026C12F0500F05D0026CD20626D529
:1008000000F0E8F910BD016C41F400710164016869
:100810008A6812F0405F17D1027EAAB9CA6A12F440
:10082000700F02D08A6852050ED44A6822F0200266
:100830004A60016C21F480710164016CC90403D425
:10084000016C41F00101016400F0C2F910BD806B40
:10085000C26CBDE810400846104710B5806B4021BF
:100860000164416C41F00401416400F0B3F910BD32
:1008700010B5806B00F0ADF910BD0000014800F02C
:10088000AAB900002C000020464910B54A6822F49D
:1008900040324A604A6843681A434A6001684A68BD
:1008A00022F480724A6001684A68036942EA0322BE
:1008B0004A6001684A6822F040724A6001684A68EA
:1008C00083681A434A6001688A6822F400628A6079
:1008D00001688A68C3681A438A60816A6FF070622F
:1008E000D14201688A6822F070628A6001688A6871
:1008F0000CD0836A1A438A6001688A6822F04052E9
:100900008A6001688A68C36A1A4301E022F0405293
:100910008A6001688A6822F002028A6001688A6837
:10092000037E42EA43028A6090F8201000290168A1
:100930004A680FD042F400624A6001684A6822F4B3
:1009400060424A6001684A68174C436A04EB4333CB
:100950001A4301E022F400624A600168CA6A22F484
:100960007002CA620168CA6A838B104C04EB03539D
:100970001A43CA6201688A6822F400728A600168B8
:100980008A6890F8303042EA43228A6001688A68B7
:1009900022F480628A6001688A68406942EA8020A5
:1009A000886010BD0023014000E0FFFF0000F0FF61
:1009B000FEE70000014800F0BFBA000080010020FF
:1009C00001681823CAB2103AB2FBF3F2054B6FF379
:1009D0000901032A9B5CC36500D9091D816508468E
:1009E000704700004C32000810B5014600208B69AA
:1009F0008A6A4FF0C07453B1B3F5005F15D072B17D
:100A0000012A0CD0022A0AD0032A09D104E01AB123
:100A1000012A06D0022A03D1C96AC90100D50120E2
:100A200010BDC96AA142FAD010BD002AF7D0012A30
:100A3000F2D0022AF3D0032AF3D010BD30B50468F7
:100A4000256825F480252560046863608368402B51
:100A5000036803D099600068C26030BD9A60006886
:100A6000C16030BD704770477047000078B5002402
:100A7000009490F83C20012A19D0012280F83C20F3
:100A80000A6807230568092A13D9EE680A3A02EBB7
:100A9000420293409E43EE600B788A680A3B03EB68
:100AA00043039A400368DD682A43DA6010E00220BD
:100AB00078BD2E6902EB420293409E432E610B7873
:100AC0008A6803EB43039A4003681D692A431A614D
:100AD0004A681F23072A13D205686E6B521E02EB69
:100AE000820293409E436E630A8893B20A79521E33
:100AF00002EB820293400268556B2B43536327E05D
:100B000005680D2A12D22E6BD21F02EB820293408F
:100B10009E432E630B790A88DB1F92B203EB83039B
:100B20009A4003681D6B2A431A6311E0EE6A0D3A7E
:100B300002EB820293409E43EE620B790A880D3BE2
:100B400092B203EB83039A400368DD6A2A43DA62B8
:100B50001B4B0568194A9D420AD10D68122D07D119
:100B6000556825F400055560556845F480055560C5
:100B700005689D421DD1134D0B68AB4201D0112B6E
:100B800017D1536823F480035360536843F4000380
:100B900053600968A9420CD10B490C4A0968B1FBA2
:100BA000F2F101EB8101490000E0491E00910029AA
:100BB000FBD180F83C40002078BD000000230140BC
:100BC00000200140120000102400002040420F00CD
:100BD00070477047704770B5044600680168426806
:100BE000C1F34001C2F3401251B34AB3216CC906AC
:100BF00003D4216C41F400712164816811F0405FDD
:100C000017D1217EA9B9C16A11F4700F02D0816891
:100C100049050ED4416821F020014160206C20F488
:100C200080702064206CC00403D4206C40F001006C
:100C300020642046FFF7CCFF21686FF012000860A7
:100C4000206801684268C1F38001C2F3C01289B311
:100C500082B3216CC90603D4216C41F40051216494
:100C6000816811F4401F1ED1816B11F4401F02D026
:100C70008168490517D44168490514D4816811F089
:100C8000405F10D1217E71B9416821F0800141603F
:100C9000206C20F480502064206CC00503D4206CAC
:100CA00040F0010020642046FFF7DEFE21686FF06F
:100CB0000C00086020680168426811F0010FC2F35F
:100CC00080120ED06AB10068C0070AD0206C40F4D0
:100CD00080302064204600F046F821686FF0010063
:100CE0000860206801684268C1F34011C2F3806265
:100CF00000290DD0002A0BD0616C41F00201616423
:100D00006FF0200505602046FFF764FF206805604E
:100D100070BD70B504004FF0000503D0206C0026B4
:100D200010B107E0012070BD204600F01DF8666498
:100D300084F83C60206CC00610D4206C20F48850ED
:100D400040F0020020642046FFF79EFD6664206CA0
:100D500020F0020040F00100206400E0012584F84A
:100D60003C60284670BD704770B586B006461421B9
:100D70006846FFF765FA2249306888423ED121482B
:100D80000025016841F480710160006800F4807002
:100D900005901C481438016841F0010101600068A9
:100DA000694600F0010005903F2000900320CDE946
:100DB0000105154800F032FA154C1448C4E9000545
:100DC0000015A560C4E90350400060618000A06187
:100DD0004011E0614FF44030C4E90805204600F0BE
:100DE0007BF908B1FFF73FFEB463002211461220E1
:100DF000A66300F051FB122000F040FB06B070BD6E
:100E000000200140443802400000024010640240CB
:100E100080010020F8B50E4600210446009190F8AC
:100E20003C00012807D0012084F83C00206883683A
:100E3000DB0702D011E00220F8BD836843F0010314
:100E400083602D482D4B0068B0FBF3F000EB4000B1
:100E500000E0401E00900028FBD120688368DB077B
:100E600048D0236C40F20165AB4343F480732364A4
:100E70004068400505D5206C20F4005040F48050B7
:100E80002064206CC00404D5606C20F0060060640F
:100E900000E0616484F83C10A16B1A48184DC863E7
:100EA000A16B19480864A16B1848C86421686FF0E9
:100EB000220008602068416841F08061416020683C
:100EC000816841F4807181602168134632464C315B
:100ED000A06B00F06BF96868C006206802D00C496E
:100EE000884207D1816811F0405F03D1816841F0E9
:100EF000804181600020F8BD2400002040420F00A6
:100F000000230140ED070008710800085B08000895
:100F10000020014090F83510022903D0802141655E
:100F200001207047052180F835100068016821F024
:100F300001010160002070472DE9F84304464FF09D
:100F40000009CDF8009063484FF41651A56D006874
:100F5000B0FBF1F72E6894F85C10082000FA01F15C
:100F600031420FD021680A6852070BD50A6822F077
:100F700004020A6094F85C108840A860606D40F03C
:100F80000100606594F85C104FF0010808FA01F068
:100F9000304208D021684969090604D5A860606D0F
:100FA00040F00200606594F85C10042088403042F4
:100FB00008D021680968890704D5A860606D40F0F1
:100FC0000400606594F85C1010208840304218D00E
:100FD00021680968090714D5A860206801684903D9
:100FE00004D50068000308D5A16C07E00168C905B5
:100FF00003D4016821F008010160216C09B1204689
:10100000884794F85C1020208840304231D0216815
:101010000968C9062DD5A86094F835000528206810
:10102000016806D0490347D5006800031DD4616CF0
:101030001CE021F0160101602068416921F0800167
:101040004161206C08B9A06C20B12068016821F0D2
:101050000801016094F85C103F208840A86084F883
:10106000349084F83580216D1FE0E16B09B1204692
:101070008847606D00282BD0606DC00714D0052014
:1010800084F835002068016821F0010101600098B2
:10109000401C0090B84203D820680068C007F6D111
:1010A00084F8349084F83580E16C002910D001B0C8
:1010B0002046BDE8F04308470168C905D5D401685A
:1010C00021F01001016084F8349084F83580CCE779
:1010D000BDE8F883240000202DE9F041044600F02B
:1010E0006DF906465CB1002584F83450022084F87E
:1010F00035002068016821F0010101600DE0012048
:10110000BDE8F08100F05AF9801B052805D92020A0
:101110006065032084F83500F2E720680068C007A6
:10112000F0D12268116820480140D4E90103184336
:10113000D4E903363343184363691843A36918435A
:10114000E3691843236A18430843616A042903D1F9
:10115000D4E90B1319430843106020684069666A9C
:1011600020F0070130460E43012704280CD1A06A65
:101170000643E06A40B12046FFF736FC20B140202C
:10118000606584F83570BAE7206846612046FFF74D
:1011900017FC94F85C203F2191408160656584F8DC
:1011A00035700020ACE700003F8010F02DE9F041E1
:1011B0000446866D90F83400002501280DD00120EA
:1011C00084F8340094F835700020012F07D084F89B
:1011D000340002252846BDE8F0810220FBE7022703
:1011E00084F8357060652046FFF728FC94F85C10A1
:1011F0003F208840B0602068016841F0160101601E
:10120000206C20B12068016841F00801016020686D
:10121000016841F001010160DCE700002DE9F84FB1
:1012200000224FF0010803254FF00F0E0B6808FA5B
:1012300002F42340A34271D14E68012E05D0022E44
:1012400003D0112E01D0122E15D18668570005FA51
:1012500007FC26EA0C06D1F80CC00CFA07FC4CEA95
:10126000060CC0F808C04668A6430C79C4F3001405
:10127000944034434460C668570005FA07FC8C6804
:1012800026EA0C06BC403443C4604C68022C01D0F2
:10129000122C13D1D40800EB8404A346D4F8209078
:1012A00054074FEAD46A0EFA0AF629EA06090E69CB
:1012B00006FA0AF646EA0906CBF8206004680E79B9
:1012C00024EA0C0406F00306BE40264306604C6880
:1012D000E40056D52E4C266846F4804626602468E5
:1012E00022F0030604F4804400942A4C3444A446BB
:1012F000D4F808489607370F0EFA07F6B443264E7F
:10130000B04201D1002615E0244EB04201D10126A1
:1013100010E0234EB04202D102260BE031E0214E14
:10132000B04201D1032605E01F4EB04201D1042690
:1013300000E00726BE402643CCF808681B4E346800
:101340004F689C43FF0300D51C433460174E361D85
:1013500034684F689C43BF0300D51C433460134E70
:10136000083634684F689C43FF0200D51C43346044
:101370000E4E0C3634684F689C43BF0200D51C43A8
:101380003460521C102AFFF451AFBDE8F88F000002
:101390004438024000300140000002400004024096
:1013A00000080240000C024000100240003C0140D6
:1013B0000AB1816170470904FBE7000001488068B9
:1013C000704700001800002002488168027811442C
:1013D00081607047180000200B4810B5016841F487
:1013E00000710160016841F480610160016841F4AD
:1013F00080710160032000F06FF8002000F006F813
:1014000000F024F8002010BD003C024070B50D4DE6
:1014100004464FF47A712878B1FBF0F00A49096864
:10142000B1FBF0F000F004FB48B9102C07D2002209
:101430002146501E00F030F800206C6070BD012085
:1014400070BD000018000020240000200A4808B5E4
:10145000016841F480410160006800F48040009020
:101460000548001F016841F080510160006800F0EC
:101470008050009008BD000044380240002809DB7D
:1014800000F01F02012191404009800000F1E0209E
:10149000C0F8001170470000F0B40E4B1B680C46FA
:1014A000C3F30223C3F10705042D00D90425191D38
:1014B000072901D2002300E0DB1E012606FA05F110
:1014C000491E214099409E40761E16403143F0BC93
:1014D00001F0CDB90CED00E0064900F00702086804
:1014E0004FF6FF03184040EA0220034A1043086009
:1014F000704700000CED00E00000FA052DE9F04710
:101500000E46050065D0DFF81481D8F80000F7B268
:1015100000F00F00B04207D288F80070D8F8000041
:1015200000F00F00B04254D128683D4C810712D51D
:10153000400703D5206840F4E05020602878000779
:1015400003D5206840F4604020602068A96820F03E
:10155000F000084320602878C0072DD03049686823
:101560000839012812D0022813D0032811D00968A5
:10157000890700292DDA216821F003010143216048
:10158000FFF71CFF814641F2883A0EE009688903A3
:10159000EFE709688901ECE7FFF710FFA0EB09010D
:1015A000514502D90320BDE8F0872068696800F042
:1015B0000C00B0EB810FEFD1D8F80010404601F0DD
:1015C0000F01B14207D90770006800F00F00B04268
:1015D00001D00120E7E72878400705D52068E968B1
:1015E00020F4E050084320602878000706D52068E2
:1015F000296920F4604040EAC100206000F038F81A
:101600002168084AC1F30311515CC84006490860CB
:1016100006480068FFF7FAFE0020C4E7003C0240DD
:101620000838024054320008240000201C0000202A
:101630000448054900680968044AC1F38221515CE5
:10164000C840704724000020083802406432000877
:101650000448054900680968044AC1F34231515CF5
:10166000C840704724000020083802406432000857
:10167000154810B5006810F00C02144813D0144936
:10168000042A0FD0082A0ED10F4C241F2268236889
:1016900002F03F025B0207D52068C0F38810A0FB70
:1016A000010106E0084610BD2168C1F38811A1FBC5
:1016B00000010023FEF78CFD2168C1F30141491CA4
:1016C0004900B0FBF1F010BD083802400024F400DE
:1016D00040787D012DE9F84F04006ED02078DFF8C6
:1016E0003C93C007A9F104054AD009F10400016840
:1016F000C1F38101012908D00068C0F381000228EC
:101700000AD1D9F80000400206D52868800337D5F1
:1017100060680028E1D033E06068B0F5803F10D009
:10172000B0F5A02F286810D020F4803028602868F9
:1017300020F4802028606068A8B1FFF73FFE0646CD
:101740000DE0286840F48030F4E740F48020286001
:10175000F7E700BFFFF732FE801B642873D82868C4
:101760008003F7D50CE0FFF729FE064605E000BF31
:10177000FFF724FE801B6428F0D828688003F7D484
:101780002078DFF89C8280074FF0000A3ED5A348FE
:10179000001D016811F00C0F08D00068C0F3810033
:1017A00002280BD1D9F80000400207D4286880072E
:1017B00016D5E068012800D112E02BE1E068B8B14D
:1017C0000120C8F80000FFF7F9FD064605E000BF5C
:1017D000FFF7F4FD801B0228C0D828688007F7D5E2
:1017E0002868216920F0F80040EAC10028600DE077
:1017F000C8F800A0FFF7E2FD064604E0FFF7DEFDB3
:10180000801B02281FD828688007F7D4207800079B
:1018100022D5824E83486169703671B10121016021
:10182000FFF7CCFD074604E0FFF7C8FDC01B022808
:1018300009D830688007F7D50EE0C0F800A0FFF7A0
:10184000BDFD074605E082E0FFF7B8FDC01B02289A
:101850007DD830688007F7D42078400768D5DFF856
:10186000BCB100270BF13C0BDBF80000C0000BD42F
:10187000DBF8001041F08051CBF80010DBF80000DD
:10188000012700F080500090674E3068C00510D4EA
:10189000306840F480703060FFF790FD009005E004
:1018A000FFF78CFD0099401A022850D83068C00517
:1018B000F6D55A4EA0686C3601280FD0052830683E
:1018C00010D020F001003060306820F0040030605B
:1018D000A068B8B1FFF772FD00900FE0306840F0EB
:1018E0000100F4E740F004003060F7E7FFF766FD21
:1018F0000099411A41F28830814266D830688007E9
:10190000F4D50EE0FFF75AFD009007E0FFF756FD13
:101910000099411A41F28830814256D830688007D8
:10192000F4D42FB1DBF8001021F08051CBF8001077
:10193000A069C8B33949091D0968C1F381010229A9
:101940004AD00228504607D0C8F8600000E03CE0CA
:10195000FFF734FD04463BE04746C8F86000FFF758
:101960002DFD064605E000BFFFF728FD801B02287D
:101970002BD828688001F7D4D4E907010843A16A6D
:101980002A4A490802EB0141626A41EA821108438E
:1019900094F82C1040EA0161C9F800100120386663
:1019A000FFF70CFD044606E036E000BFFFF706FD3A
:1019B000001B022809D828688001F7D52CE000BF59
:1019C000FFF7FCFC001B022802D90320BDE8F88FBA
:1019D00028688001F4D41FE00128F7D0D9F800006E
:1019E000E26900F48001914214D1226A00F03F01C3
:1019F00091420FD147F6C071626A0140914209D10C
:101A0000A26A00F44031914204D1E16A00F07060B2
:101A1000884201D00120D9E70020D7E704380240EE
:101A200000004742800E4742007000400000FFFF68
:101A300010B5401EB0F1807F01D3012010BD4FF0E2
:101A4000E02460610F21601700F011FF0020A06109
:101A500007202061002010BD7047704770B590F8D6
:101A60003C20012A2CD0012480F83C40022280F83E
:101A70003D2003685A689D6822F070060A68324368
:101A80005A60104B02689A420ED0B2F1804F0BD0D0
:101A90000D4B9A4208D00D4B9A4205D00C4B9A42FE
:101AA00002D00C4B9A4204D1496825F080031943B7
:101AB000916080F83D40002180F83C10084670BDE0
:101AC000022070BD000001400004004000080040FA
:101AD000000C00400040014010B5040003D094F811
:101AE0003D0010B107E0012010BD002084F83C004B
:101AF000204600F00DF8022084F83D00211D2068EA
:101B000000F0EEFC012084F83D00002010BD000034
:101B100008B501681D48B1F1804F11D01C4A9142AF
:101B20001DD1016841F0020101600068002200F04F
:101B30000200009011461D20FFF7AEFC1D201FE0A3
:101B4000016841F0010101600068002200F001001D
:101B5000009011461C20FFF79FFC1C2010E00D4A4E
:101B6000914211D1016841F0040101600068002236
:101B700000F00400009011461E20FFF78DFC1E208F
:101B8000BDE80840FFF77ABC08BD000040380240BD
:101B900000040040000800400168CA6842F00102E9
:101BA000CA600068816801F00701062903D0016856
:101BB00041F0010101600020704770B5044690F8C3
:101BC0003C00012817D0012584F83C50022084F8FD
:101BD0003D002068826822F0770222F47F42826012
:101BE0000868502830D00DDC20284DD005DC98B393
:101BF00010283BD148E0022070BD302844D0402856
:101C000034D139E0602828D0702806D0B0F5805F44
:101C10002CD0B0F5005F29D10AE0CB68D1E90121D1
:101C2000206800F0A9FC2068816841F0770109E094
:101C3000CB68D1E90121206800F09EFC2068816812
:101C400041F48041816011E0CA684968206800F071
:101C5000A5FC5021206807E016E0CA6849682068A2
:101C600000F0ADFC6021206800F090FC84F83D504D
:101C7000002084F83C0070BDCA684968206800F004
:101C80008DFC40212068EFE7226801461046EBE713
:101C9000704770B50446006801694FF00005C943FC
:101CA000890715D4C168C943890711D4E91E0161A8
:101CB00001202077206880698007204602D0FFF746
:101CC000E7FF04E000F098F8204600F096F825774A
:101CD00020680169C943490717D4C168C943490746
:101CE00013D46FF00401016102202077206880691D
:101CF00010F4407F204602D0FFF7CAFF04E000F056
:101D00007BF8204600F079F8257720680169C943FF
:101D1000090716D4C168C943090712D46FF0080136
:101D20000161042020772068C0698007204602D026
:101D3000FFF7AEFF04E000F05FF8204600F05DF82A
:101D4000257720680169C943C90617D4C168C9430A
:101D5000C90613D46FF010010161082020772068B4
:101D6000C06910F4407F204602D0FFF791FF04E0E5
:101D700000F042F8204600F040F82577206801691D
:101D8000C943C90708D1C168C943C90704D1891E1D
:101D90000161204600F032F820680169C943090654
:101DA00009D4C168C943090605D46FF080010161F7
:101DB0002046FFF751FE20680169C943490609D44E
:101DC000C168C943490605D46FF04001016120464E
:101DD00000F024F920680169C94389060BD4C16861
:101DE000C943890607D46FF0200101612046BDE890
:101DF0007040FFF732BE70BD7047704710B57B4929
:101E000004462DED088B00680968884205D17849A1
:101E10000622A1F5A470FEF7FDFF74492068803109
:101E2000096888427DD1734C94F90000FEF79BFB52
:101E30009FED711B53EC112BFEF7B4FAFEF7B7FBC5
:101E400000EE100A84ED030AD4ED020A20EE800AA7
:101E500010EE100AFEF798FB9FED698B53EC182BE0
:101E6000FEF79AFA41EC100B00F012FDB0EE409A2A
:101E7000F0EE609A94F90100FEF775FB53EC192B14
:101E8000FEF790FA94ED030AD4ED020A41EC190B27
:101E900020EE200A10EE100AFEF776FB53EC182B0A
:101EA000FEF7D9F941EC100B00F0F2FCB0EE40AABD
:101EB000F0EE60AA94F90100FEF755FB53EC1A2BE3
:101EC000FEF770FA94ED030AD4ED020A41EC1A0B06
:101ED00020EE200A10EE100AFEF756FB41EC100B24
:101EE00000F0D6FC94F90100B0EE40BAF0EE60BA12
:101EF0004000FEF738FB53EC1B2BFEF753FA53EC74
:101F00001A2BFEF749FA53EC192BFEF745FA9FED11
:101F10003E1B53EC112BFEF7B7FAFEF748FB20618E
:101F200000E05FE094ED020AD4ED030A20EE200AFF
:101F300010EE100AFEF728FB53EC182BFEF72CFAD4
:101F400041EC100B00F0A4FCB0EE409AF0EE609A69
:101F500094F90100FEF707FB53EC192BFEF722FA68
:101F600094ED030AD4ED020A41EC190B20EE200A8D
:101F700010EE100AFEF708FB53EC182BFEF76BF976
:101F800041EC100B00F084FCB0EE408AF0EE608A69
:101F900094F90100FEF7E7FA53EC182BFEF702FA6A
:101FA00053EC192BFEF7F8F99FED191B53EC112B8D
:101FB000FEF7F8F9FEF7FBFA606194ED011AB7EE4F
:101FC000000AC0EE010A94ED020A30EE800A84EDA8
:101FD000020AF4EE400AF1EE10FA03D19FED0E0A68
:101FE00084ED020ABDEC088B10BD000074000020D7
:101FF00074010020000000207FBDC282FB21194037
:10200000557E2C5752C100400000000000000840DF
:10201000280F0BB5A679E23F00000000704770471B
:1020200070B5026804461068D168536910F00F0F4C
:1020300052D003F0010501F490762E435FD0C20721
:1020400005D0CA0503D5E26B42F00102E263420704
:1020500005D5DA0703D0E26B42F00202E2638207A1
:1020600005D5DA0703D0E26B42F00402E26302070F
:1020700007D501F020022A4303D0E26B42F00802A8
:10208000E263E26B002A33D0800604D5880602D5CD
:10209000204600F0BCFA20684069E16BC0F3801074
:1020A000090700D428B3204600F0A3FA206841694C
:1020B00049061AD5416921F040014161606BA0B128
:1020C0001B490165606BFEF725FF002810D0606B8F
:1020D000016DBDE870400847830610D58B060ED50C
:1020E0002046BDE8704000F092BA2046FFF797FF07
:1020F00070BD2046FFF793FF0020E06370BD03062C
:1021000006D50B0604D52046BDE8704000F05EBB46
:102110004006F3D54806F1D5D168204621F04001AC
:10212000D160202184F8391000F075F870BD0000EE
:10213000E325000870B5040004D094F839000025A8
:1021400010B106E0012070BD84F83850204600F040
:1021500023F8242084F839002068C16821F4005154
:10216000C160204600F09EFA2068016921F4904188
:1021700001612068416921F02A0141612068C1683C
:1021800041F40051C160E563202084F8390084F8EF
:102190003A00002070BD000010B586B0044614213E
:1021A0006846FEF74DF818492068884229D117483B
:1021B0000021026842F010020260006800F0100086
:1021C000059012481438026842F00102026000686B
:1021D00000F0010005904FF4C06000900220CDE9AE
:1021E0000101032003900720049069460848FFF787
:1021F00015F8002211462520FFF74EF92520FFF79C
:102200003DF906B010BD0000001001404438024006
:102210000000024070477047FEE700007FB50024D1
:1022200023480094019402942049039401600125FD
:102230004FF480310561C0E90114057680F8204033
:102240001C49C0E90A140626C661C46080F8304003
:102250004561FEF75EFDCDE900450224694614485C
:102260000294FEF703FCCDE9005469461048FEF7DE
:10227000FDFB0094032469460D480194FEF7F6FB2C
:102280000094042469460A480194FEF7EFFB009489
:102290000524694606480194FEF7E8FBCDE90046AF
:1022A00069460348FEF7E2FB7FBD000000200140C5
:1022B0002C0000200100000F70B586B01421684684
:1022C000FDF7BEFF16480025016841F0800101605E
:1022D000016801F080010591016841F00101016090
:1022E000016801F001010591016841F008010160F8
:1022F00000680C4E00F008004FF460440590002286
:1023000021463046FFF754F80120CDE90040032074
:10231000CDE9025069463046FEF780FF06B070BD39
:1023200030380240000C024010B586B0002410483E
:10233000009401940294039404944FF08041059416
:1023400001606321C0E90114C0E903148461FFF74F
:10235000C3FB4FF48050009069460548FFF72DFC01
:10236000049404A902480594FFF778FB06B010BD59
:102370007400002010B586B0002410480094019429
:102380000294039404940C490594C0E900148460F9
:10239000C46004618461FFF79FFB4FF4805000909C
:1023A00069460648FFF709FC049404A9034805940C
:1023B000FFF754FB06B010BD00040040B40000203D
:1023C00010B586B00024124800940194029403943E
:1023D00004940E490594016040F2E731C0E901140C
:1023E0006321C0E903148461FFF776FB4FF480504A
:1023F000009069460648FFF7E0FB049404A90448EE
:102400000594FFF72BFB06B010BD0000000800404C
:10241000F4000020FEE7704770477047FEF7D4BF16
:1024200030B593B030216846FDF70AFF14210CA89F
:10243000FDF706FF18480025016841F08051016052
:10244000006800F0805011901448016841F4404148
:1024500001600068022400F44040119001200090C7
:10246000000401908001CDE906400C200890602016
:10247000CDE9090404200B906846FFF72BF90CA95D
:102480000F2081E83100E002CDE90F0503210CA8FF
:10249000FFF734F813B030BD403802400070004000
:1024A0000548016841F47001016003494FF0006084
:1024B000803908607047000088ED00E00148FFF7B0
:1024C000E8BB0000740000200148FFF7E2BB0000F9
:1024D000B40000200148FFF7DCBB0000F40000203E
:1024E000F0B502681D4B1E4C9F031E4D1E4E9842B8
:1024F00007D0B84205D0A04203D0A84201D0B042D4
:1025000004D122F0700C4A6842EA0C02984210D0C2
:10251000B8420ED0A0420CD0A8420AD0B04208D097
:10252000124CA04205D0124CA04202D0114CA04245
:1025300003D122F44074CA6822434C6922F080021D
:10254000224302608A68C2620A688262984201D1AC
:102550000969016301214161F0BD000000000140F3
:102560000004004000080040000C00400040014012
:10257000004401400048014010B5846842EA03224B
:1025800024F47F440A432243826010BD826822F013
:1025900070020A4342F007018160704710B5036A78
:1025A000046A24F001040462846924F0F00444EA1B
:1025B000021423F00A020A438461026210BD10B5BE
:1025C000036A23F0100303628369046A23F47043EF
:1025D00043EA023224F0A00343EA0111826101625E
:1025E00010BD10B5806B0021C185C184FFF717FDB8
:1025F00010BD0168CA6822F49072CA6001684A6915
:1026000022F001024A61202180F83A10704710B58B
:1026100090F83A10222901D0022010BD8168B1F54E
:10262000805F11D00169002901681FD0496801F05D
:102630007F03816A4A1C82620B70C18D491E0904A6
:10264000090CC18518D02BE00269816A002A026852
:10265000526805D0D2B20A80816A491C8162ECE7D7
:10266000C2F308020A80816A891CF7E74A68816A16
:102670004B1C83620A70E0E70168CA6822F02002FE
:10268000CA600168CA6822F48072CA6001684A6937
:1026900022F001024A61202180F83A10FFF7BAFDCA
:1026A000002010BD2DE9F041044600680169E26890
:1026B00021F44051114301612169A068E269084396
:1026C0006169114308432168CA6849F20C639A435F
:1026D0000243CA6020684169A26921F44071114334
:1026E0004161E069192764253226B0F5004F354A6B
:1026F000354920684FF0000806D0884201D090424A
:1027000036D1FEF7A5FF35E0884201D0904202D1D4
:10271000FEF79EFF01E0FEF78BFF61684A18A0FB01
:10272000070148EB0803FDF753FD0146B0FBF5F048
:102730000201B1FBF5F06FF01803584301EB800084
:1027400006EBC000B0FBF5F000F0F80002EB400231
:10275000B1FBF5F0584301EB800006EBC000B0FB85
:10276000F5F000F00700216810448860BDE8F081B2
:10277000FEF75EFF61688B0F8A00A0FB0701FDF783
:1027800027FD0146B0FBF5F06FF01802504301EB56
:10279000800006EB0010B0FBF5F000F0F002B1FB9A
:1027A000F5F002EB0012B1FBF5F06FF0180358439F
:1027B00001EB800006EB0010B0FBF5F000F00F001D
:1027C000D1E70000001401400010014090F83910DA
:1027D000212901D0022070478168B1F5805F016A2C
:1027E0000BD04A1C0262026809785160C18C491EF4
:1027F0000904090CC1840ED017E009880268C1F3EE
:102800000801516001690029016A02D0491C016276
:10281000ECE7891CFBE70168CA6822F08002CA6005
:102820000068C16841F04001C160002070470000AD
:102830000148FFF7F5BB000034010020FEE703B4B8
:1028400001984100009850EAC12018BF04204A0DA9
:1028500018BF40F0010040F2FF72B2EB515F08BFB9
:1028600040F00200012808BF052002B070470907A8
:10287000090E002804DB00F1E02080F80014704706
:1028800000F00F0000F1E02080F8141D70470000F8
:1028900010B52F499FED2C1B2DED020B84B0059830
:1028A00020F000408842DCBF00209DED040B32DDAB
:1028B0002849884209D1049840B94FF0010000F03E
:1028C0006FFC00F03DFC06B010BD05DB9DED040B78
:1028D00000F02AFC06B010BD68469DED040B00F028
:1028E0003BF810F0030011D0012818D09DED021B19
:1028F0009DED000B02281AD000F04AFA51EC100BA3
:1029000081F0004106B041EC100B10BD9DED021BA3
:102910009DED000B012000F06FFB06B010BD9DED9A
:10292000021B9DED000B00F033FA06B010BD012034
:1029300000F062FB51EC100B81F0004106B041EC5D
:10294000100B10BD0000000000000000000000009F
:10295000FB21E93F0000F07F2DE9F14F04462DED0A
:10296000020B2DED088B8AB09FEDE70B80ED020B7B
:10297000139EE74826F0004585420ADC9DED120BC8
:10298000002084ED000B0AB0BDEC088B03B0BDE85D
:10299000F08FE0489FEDE0AB9FEDE1BBA84247DD43
:1029A000E14F9FEDE39B9FEDE48B9DED120B53EC0C
:1029B0001A2B51EC100B002E1CDDFDF7EDFC41EC49
:1029C000100BBD4208D053EC1B2B51EC100BFDF744
:1029D000E3FCC4E900010BE053EC192B51EC100BA4
:1029E000FDF7DAFC53EC182BFDF7D6FCC4E9000127
:1029F0000120C8E7FDF72FFC41EC100BBD4208D0C9
:102A000053EC1B2B51EC100BFDF725FCC4E9000126
:102A10000BE053EC192B51EC100BFDF71CFC53ECA5
:102A2000182BFDF718FCC4E900014FF0FF30AAE7AE
:102A3000C348A84279DB9DED120B51EC100B00F05E
:102A4000B5FB41EC180B9FEDC00B53EC102BFDF7C1
:102A5000A9FC9FEDBF1B53EC112BFDF7FCFBFDF711
:102A6000A6FE0746FDF77FFD41EC190B53EC1A2B30
:102A7000FDF798FC53EC182BFDF791FC41EC180B7B
:102A800053EC1B2B51EC190BFDF78CFCDFF8C8A2A3
:102A900041EC100B4FEA15580125FA4453EC102B6A
:102AA00051EC180BFDF778FC032DC4E900013DD073
:102AB000C1F30A5005EB4511A8EB00001139814222
:102AC00034DA0AEB051BB0EE48AA9BED000BF0EEE2
:102AD00068AA53EC102B51EC190BFDF763FC41EC89
:102AE0001B0B51EC1A0B53EC1B2BFDF755FC41EC67
:102AF000180B51EC1A0B53EC182BFDF74DFC53EC53
:102B00001B2BFDF749FC9BED020B41EC1A0B53EC20
:102B1000102B51EC190BFDF745FC53EC1A2BFDF76C
:102B20003BFC41EC100B6D1CB8E70EE0002EA8BF7B
:102B30003846BFF628AF94ED000B51EC100B81F036
:102B40000041C4E9000178421DE7C6F3130040F4D8
:102B5000801EC6F30A50A0F2F530471100F01F05A1
:102B6000C5F12000DDF848B00890002006900790DD
:102B70000520EC467949002D07EB0002794408BF97
:102B800051F8221009D051F8223001EB8201AB40FC
:102B90004A68089922FA01F11943A1FB0E26A1FB0C
:102BA0000B131A449A4234BF0123002303EB060897
:102BB0000CEB8003D3E901A60E448E4234BF012101
:102BC000002192448A4411B1924502D903E0924512
:102BD00001D2012100E00021C3E901A641444CF8E3
:102BE0002010011EA0F10100C4DC029800F1005089
:102BF000850F0298DDE903678000DDF81480FDF79A
:102C0000B2FC41EC1A0B3046FDF7C4FD9FED541B9E
:102C100053EC112BFDF7C6FB41EC1B0B3846FDF7BF
:102C2000B9FD9FED511B53EC112BFDF7BBFB41ECA4
:102C3000180B4046FDF7AEFD9FED4D1B53EC112BDD
:102C4000FDF7B0FB41EC190B51EC180B53EC192BB1
:102C5000FDF701FB53EC1B2BFDF7FDFA53EC1A2B90
:102C6000FDF7F9FACDE90801002008909DED080B69
:102C700053EC1A2B51EC100BFDF78EFB53EC1B2B76
:102C8000FDF78AFB53EC182BFDF786FB53EC192B51
:102C9000FDF785FB9FED381B53EC112BFDF782FBF5
:102CA0009FED370B41EC180B53EC102B9DED080BEF
:102CB00051EC100BFDF776FB53EC182BFDF7CBFA1C
:102CC0009FED310B41EC180B53EC102B9DED080BD5
:102CD00051EC100BFDF766FB53EC182BFDF7BBFA1C
:102CE00041EC100B139810F0004F06D06D4251ECE0
:102CF000100B81F0004141EC100B284684ED000BD5
:102D000041E600000000000000000000000000009C
:102D1000FB21E93F7CD9024000004054FB21F93FF0
:102D20003163621A61B4D03DFB21F93F000000001D
:102D30000000601A61B4D03D7370032E8A19A33B62
:102D4000FB2139410000000083C8C96D305FE43FBA
:102D5000000000000000E03F0208000050070000F3
:102D6000000000000000103E000000000000103CC9
:102D7000000000000000103A182D4454FB21F93DDA
:102D80003326A611460B113C00000054FB21F93DEF
:102D900010B52DED040B2DED088B82B0B0EE419AED
:102DA000F0EE619A0B9820F000449FED4BABB4F12C
:102DB000795F11DA9DED0A0B51EC100BFDF7F7FC72
:102DC000002801BFB0EE4A0AF0EE6A0A02B0BDEC7C
:102DD000088B04BF04B010BD9DED0A0B53EC102B03
:102DE00051EC100BFDF7DEFA41EC180B3C480621C4
:102DF000B0EE480AF0EE680A784400F081F853EC2F
:102E0000182B51EC100BFDF7CDFA9DED0A0B41ECA0
:102E10001B0B53EC192B51EC100BFDF7C3FA41ECD3
:102E2000190B53EC1B2B51EC180BFDF7BBFA53ECB1
:102E3000192BFDF7B1FA9FED2C0B41EC190B53EC5C
:102E4000102B51EC180BFDF7ADFA41EC100B284894
:102E5000844210DA53EC192B51EC100BFDF79CFA5D
:102E600053EC1A2BFDF79BFA41EC100B02B0BDECB2
:102E7000088B04B010BD1F48A042BCBF9FED1E1BB5
:102E80008DED001B06DBA4F50010019000200090E2
:102E90009DED001B51EC100B53EC112BFDF77CFA50
:102EA0009DED000B41EC180B53EC102B51EC1A0B61
:102EB000FDF772FA41EC1A0B53EC192B51EC180B7D
:102EC000FDF76AFA53EC1A2BFDF769FA41EC100B87
:102ED000CCE7000000000000000000000000F03F10
:102EE0007404000000000000000000000000E03F4B
:102EF0003333D33F0000E93F000000000000D23F21
:102F000070B504462DED028B4D1E00EBC500B0EEF2
:102F1000408AF0EE608A90ED000B35F0060017D085
:102F200053EC182B51EC100BFDF73CFA41EC100B55
:102F30006D1E04EBC50090ED001B51EC100B53EC23
:102F4000112BFDF788F941EC100B35F00600E7D1A5
:102F5000022D36D0042D1CD0062D1CBFBDEC028BDB
:102F600070BD53EC182B51EC100BFDF71BFA94EDD0
:102F70000A1B53EC112BFDF76EF953EC182BFDF7E0
:102F800011FA94ED081B53EC112BFDF764F941EC99
:102F9000100B53EC182B51EC100BFDF703FA94EDCA
:102FA000061B53EC112BFDF756F953EC182BFDF7CC
:102FB000F9F994ED040B53EC102BFDF74CF941ECAF
:102FC000100B53EC182B51EC100BFDF7EBF994EDB3
:102FD000021B53EC112BFDF73EF953EC182BFDF7B8
:102FE000E1F994ED001B53EC112BFDF734F9BDEC26
:102FF000028B41EC100B70BD31B504462DED040B76
:103000002DED0A8BB0EE41BAF0EE61BA0B989DED52
:103010000A0B20F00040B0F1795F0DDA51EC100B93
:10302000FFF70DFC042808BF00F09AF89DED0A0B8D
:10303000BDEC0A8B05B030BD53EC102B51EC100BDE
:10304000FDF7B0F941EC180B9DED0A0B53EC182B72
:1030500051EC100BFDF7A6F941EC190B2C48B0EE22
:10306000480AF0EE680A05217844FFF749FF9FED12
:103070002ACBB0EE40AAF0EE60AA9CB353EC1C2B16
:1030800051EC190BFDF78EF941EC1C0B53EC1A2B8C
:1030900051EC190BFDF786F99FED210B41EC190B53
:1030A00053EC102B51EC1B0BFDF77CF953EC192B57
:1030B000FDF772F953EC182BFDF774F953EC1B2B49
:1030C000FDF76AF953EC1C2BFDF766F99DED0A1B21
:1030D00053EC112BFDF763F9BDEC0A8B05B041EC05
:1030E000100B30BDFFE753EC1A2B51EC180BFDF71A
:1030F00059F953EC1C2BFDF7AEF853EC192BFDF7E7
:1031000051F99DED0A1B53EC112BFDF7A4F8E3E7F1
:10311000FC02000000000000495555555555C5BF3B
:10312000000000000000E03F10B553EC102B51EC04
:10313000100BFDF790F841EC100B10BD00000000E3
:103140009FED050B10B553EC102B51EC100BFDF758
:103150009BF941EC100B10BD0000000000000000C6
:103160009FED050B10B553EC102B51EC100BFDF738
:1031700019F941EC100B10BD000000000000001018
:1031800002E008C8121F08C1002AFAD17047704730
:10319000002001E001C1121F002AFBD1704700008E
:1031A00001490860704700002800002082B0CDE986
:1031B000000121F0004001909DED000B02B051ECA8
:1031C000100B704708B5FEF707F9FFF729F9FFF76D
:1031D00073F81B480024016841F480010160006815
:1031E000224600F48000009021463820FEF754F972
:1031F0003820FEF743F9FFF711F8FFF795F8FFF7CE
:10320000B9F811480F4901604FF4E131C0E90114E8
:103210000C21C460C0E904418461C461FEF78AFFE7
:10322000FFF7CEF80848C038FEF7B6FC06488038ED
:10323000FEF7B2FC04484038FEF7AEFCFEE70000A3
:103240003038024000100140340100200006101602
:103250000006101600000000000000000102030438
:103260000607080900000000010203040000000036
:103270004C5555555555A53F7751C1166CC156BF94
:103280009015CB19A001FA3EAD529C804F7E92BEA4
:10329000C4B1B4BD9EEE213ED43888BEE9FAA8BDC3
:1032A00000004054FB21F93F3163621A61B4D03D04
:1032B0000000601A61B4D03D7370032E8A19A33BDD
:1032C0000000002E8A19A33BC14920259A837B392F
:1032D00000000000000000006E83F9A22915444E92
:1032E000D15727FCC0DD34F5999562DB4190433C12
:1032F000AB6351FE61C5BBDE3A6E24B7E0D24D42EE
:10330000EA2E49061C92D1091CEB1DFE3EA729B1ED
:10331000F53582E88444BB2E26709CE9417E5FB47B
:1033200039D69139F43953838B5F849C3B28F9BD9E
:10333000FF97F81F0F9805DE8B112FEF1F6D0A5AAC
:10334000CF7E366DB709CB27663F464F2DEA5F9E8D
:10335000C7BA27757BF1E5EBF739073DEA92528A48
:10336000B15FFB6B085D8D1FA6F810111111813F35
:10337000D561C119A0012ABF7DFEB157E31DC73E2B
:10338000EB9C2B8AE6E55ABE7CD5CF5A3AD9E53D6F
:10339000B0330008000000202C000000803100083D
:1033A000DC3300082C000020B40500009031000838
:1033B000320F000000401C4600000000000000002A
:1033C00000000000000000000100000010000000EC
:0C33D000000000000024F40000000000D9
:040000050800019955
:00000001FF
