:020000040800F2
:10000000C00C0020AD010008AF220008651E0008EA
:10001000AD22000845070008D526000800000000B2
:10002000000000000000000000000000B3220008F3
:100030003D08000800000000B1220008B5220008B9
:10004000C7010008C7010008C7010008C701000870
:10005000C7010008C7010008C7010008C701000860
:10006000C7010008C7010008C7010008C701000850
:10007000C7010008C7010008C7010008C701000840
:10008000C7010008C70100081106000800000000B1
:10009000000000000000000000000000C701000890
:1000A000C7010008C7010008C7010008C701000810
:1000B00055230008612300086D230008C7010008CC
:1000C000C7010008C7010008C7010008C7010008F0
:1000D000C7010008C9260008C70100080000000089
:1000E000C7010008C7010008C701000800000000A0
:1000F000000000000000000000000000C701000830
:1001000000000000C7010008C7010008C70100087F
:1001100000000000000000000000000000000000DF
:100120008D070008C7010008C7010008C7010008C3
:10013000C7010008000000000000000000000000EF
:10014000000000000000000000000000C7010008DF
:10015000C7010008C7010008C7010008C70100085F
:10016000C7010008C70100080000000000000000EF
:10017000000000000000000000000000000000007F
:1001800000000000C701000800000000000000009F
:10019000C7010008C7010008DFF80CD000F0B0F973
:1001A0000048004715270008C00C0020064880477B
:1001B00006480047FEE7FEE7FEE7FEE7FEE7FEE74C
:1001C000FEE7FEE7FEE7FEE7392300089901000895
:1001D0002DE9F05F0546002092469B46884606467C
:1001E000814640241BE0284641464746224600F00F
:1001F000E2F853465A46C01A914110D311461846A8
:10020000224600F0C9F82D1A67EB01084F46224636
:100210000120002100F0C0F817EB00094E41201E1C
:10022000A4F10104DFDC484631462A464346BDE8D6
:10023000F09FD2B201E000F8012B491EFBD27047BB
:100240000022F6E710B513460A4604461946FFF7A2
:10025000F0FF204610BD2DE9FE4F81EA030404F0B3
:10026000004421F0004100944FF0000B23F00043C4
:1002700050EA01045ED052EA03045BD0C3F30A548F
:10028000C1F30A552C44A4F2F3340194A0FB0254A8
:10029000C1F3130141F48011C3F3130343F480133A
:1002A00001FB024400FB034E840A970A44EA81548E
:1002B00047EA8357A4FB076802958D0A05FB07856B
:1002C0004FEA932C04FB0C542705029D4FEA065875
:1002D00047EA1637B5EB08056EEB070C870E920E52
:1002E00047EA811742EA8312A7FB0201B6EB0B0132
:1002F00064EB00042B0D43EA0C335E1844EB1C50F6
:10030000DA465146E7FB0201C5F313044FEA0B330B
:1003100043EA14534FEA0432019C43EA0603A4F172
:100320000C040294009CCDE900B400F09AF803B0EC
:10033000BDE8F08F00200146F9E700F0004230F000
:1003400000400AD0C10D01F56071C0F3160042EA09
:100350000151C20840071143704700200146704711
:1003600001F0004330B421F0004150EA010206D010
:100370000A0DA2F56072C1F31301002A02DC30BC41
:1003800000207047440F44EAC104C100E01830BCAB
:1003900000EBC25000F01FB8202A04DB203A00FA1C
:1003A00002F1002070479140C2F1200320FA03F3CC
:1003B000194390407047202A04DB203A21FA02F0CA
:1003C0000021704721FA02F3D040C2F1200291408F
:1003D0000843194670470029A8BF7047401C4900D0
:1003E00008BF20F00100704710B4B0FA80FC00FA9A
:1003F0000CF050EA010404BF10BC704749B1CCF1C5
:10040000200421FA04F411FA0CF118BF0121214350
:100410000843A3EB0C01CB1D4FEA00614FEA10200B
:1004200042BF002010BC704700EBC35010440029AD
:10043000A4BF10BC7047401C490008BF20F0010059
:1004400010BC704710B5141E73F1000408DA401C8C
:1004500041F1000192185B411A4301D120F00100E3
:1004600010BD2DE9F04D92469B4611B1B1FA81F2D3
:1004700002E0B0FA80F220329046FFF78DFF04468A
:100480000F4640EA0A0041EA0B0153465A46084328
:1004900013D0114653EA010019D0C8F1400250466A
:1004A000FFF789FF05460E46504659464246FFF77C
:1004B00073FF084305D0012004E020463946BDE81B
:1004C000F08D0020054346EAE0762C4337430A9836
:1004D0006305E40AA0EB08000022FD0A44EA475441
:1004E0000A3002D500200146E9E7010510196941EB
:1004F000DDE9084500196941BDE8F04DA2E70000BB
:10050000064C074D06E0E06840F0010394E8070060
:1005100098471034AC42F6D3FFF742FEBC270008E0
:10052000DC27000870B58D1810F8014B14F0030299
:1005300001D110F8012B231106D110F8013B03E083
:1005400010F8016B01F8016B521EF9D1ABB110F834
:10055000012B04F00C048A1A0C2C03D0A2EB841299
:100560009B1C08E010F8014BA2EB0422F8E712F8FC
:10057000014B01F8014B5B1EF9D5A942D4D30020F1
:1005800070BD10B50146806B026C12F0500F05D0A3
:10059000026CD20626D500F009FA10BD016C41F4B8
:1005A0000071016401688A6812F0405F17D1027E11
:1005B000AAB9CA6A12F4700F02D08A6852050ED422
:1005C0004A6822F020024A60016C21F480710164C3
:1005D000016CC90403D4016C41F00101016400F015
:1005E000E3F910BD806BC26CBDE8104008461047AF
:1005F00010B5806B40210164416C41F004014164FD
:1006000000F0D4F910BD10B5806B00F0CEF910BD2C
:10061000014800F0CCB9000008070020464910B599
:100620004A6822F440324A604A6843681A434A6082
:1006300001684A6822F480724A6001684A68036966
:1006400042EA03224A6001684A6822F040724A6026
:1006500001684A6883681A434A6001688A6822F41C
:1006600000628A6001688A68C3681A438A60816A86
:100670006FF07062D14201688A6822F070628A600D
:1006800001688A680CD0836A1A438A6001688A68A4
:1006900022F040528A6001688A68C36A1A4301E006
:1006A00022F040528A6001688A6822F002028A6061
:1006B00001688A68037E42EA43028A6090F820104B
:1006C000002901684A680FD042F400624A6001685C
:1006D0004A6822F460424A6001684A68174C436ADB
:1006E00004EB43331A4301E022F400624A600168DC
:1006F000CA6A22F47002CA620168CA6A838B104C0B
:1007000004EB03531A43CA6201688A6822F4007238
:100710008A6001688A6890F8303042EA43228A6031
:1007200001688A6822F480628A6001688A68406988
:1007300042EA8020886010BD0023014000E0FFFFF6
:100740000000F0FFFEE7000030EE600A10B510EE8A
:10075000100AFFF7F2FD9FED051B53EC112BFFF77D
:100760007AFDFFF7FDFD00EE100A10BD280F0BB556
:10077000A679E23FF0EE001A50EE210A70EEC10AAF
:10078000B0EE081A80EE810A70470000014800F0C0
:10079000BFBA00005C08002001681823CAB2103AF2
:1007A000B2FBF3F2054B6FF30901032A9B5CC365AF
:1007B00000D9091D81650846704700009C27000884
:1007C00010B5014600208B698A6A4FF0C07453B19E
:1007D000B3F5005F15D072B1012A0CD0022A0AD0FD
:1007E000032A09D104E01AB1012A06D0022A03D152
:1007F000C96AC90100D5012010BDC96AA142FAD059
:1008000010BD002AF7D0012AF2D0022AF3D0032A21
:10081000F3D010BD30B50468256825F48025256027
:10082000046863608368402B036803D099600068A4
:10083000C26030BD9A600068C16030BD70477047CB
:100840007047000078B50024009490F83C20012AFD
:1008500019D0012280F83C200A6807230568092A7C
:1008600013D9EE680A3A02EB420293409E43EE60CF
:100870000B788A680A3B03EB43039A400368DD6800
:100880002A43DA6010E0022078BD2E6902EB4202B2
:1008900093409E432E610B788A6803EB43039A4092
:1008A00003681D692A431A614A681F23072A13D265
:1008B00005686E6B521E02EB820293409E436E638C
:1008C0000A8893B20A79521E02EB820293400268B0
:1008D000556B2B43536327E005680D2A12D22E6B0C
:1008E000D21F02EB820293409E432E630B790A884B
:1008F000DB1F92B203EB83039A4003681D6B2A430C
:100900001A6311E0EE6A0D3A02EB820293409E43B5
:10091000EE620B790A880D3B92B203EB83039A4097
:100920000368DD6A2A43DA621B4B0568194A9D4257
:100930000AD10D68122D07D1556825F400055560C0
:10094000556845F48005556005689D421DD1134DDD
:100950000B68AB4201D0112B17D1536823F48003ED
:100960005360536843F4000353600968A9420CD1F3
:100970000B490C4A0968B1FBF2F101EB8101490016
:1009800000E0491E00910029FBD180F83C40002086
:1009900078BD00000023014000200140120000103B
:1009A0000407002040420F0070477047704770B541
:1009B0000446006801684268C1F34001C2F3401276
:1009C00051B34AB3216CC90603D4216C41F40071C0
:1009D0002164816811F0405F17D1217EA9B9C16AF5
:1009E00011F4700F02D0816849050ED4416821F0DE
:1009F00020014160206C20F480702064206CC004D1
:100A000003D4206C40F0010020642046FFF7CCFFA7
:100A100021686FF012000860206801684268C1F325
:100A20008001C2F3C01289B382B3216CC90603D41A
:100A3000216C41F400512164816811F4401F1ED1E2
:100A4000816B11F4401F02D08168490517D44168B9
:100A5000490514D4816811F0405F10D1217E71B92D
:100A6000416821F080014160206C20F480502064B6
:100A7000206CC00503D4206C40F0010020642046A7
:100A8000FFF7DEFE21686FF00C0008602068016847
:100A9000426811F0010FC2F380120ED06AB10068F3
:100AA000C0070AD0206C40F480302064204600F05B
:100AB00046F821686FF0010008602068016842680C
:100AC000C1F34011C2F3806200290DD0002A0BD07F
:100AD000616C41F0020161646FF020050560204601
:100AE000FFF764FF2068056070BD70B504004FF02B
:100AF000000503D0206C002610B107E0012070BD76
:100B0000204600F01DF8666484F83C60206CC00646
:100B100010D4206C20F4885040F00200206420465D
:100B2000FFF77CFD6664206C20F0020040F00100BD
:100B3000206400E0012584F83C60284670BD7047C1
:100B400070B586B0064614216846FFF779FB224946
:100B5000306888423ED121480025016841F4807107
:100B60000160006800F4807005901C48143801682A
:100B700041F0010101600068694600F00100059044
:100B80003F2000900320CDE90105154800F032FA1E
:100B9000154C1448C4E900050015A560C4E90350CC
:100BA000400060618000A0614011E0614FF440307E
:100BB000C4E90805204600F07BF908B1FFF73FFEC5
:100BC000B463002211461220A66300F051FB1220EC
:100BD00000F040FB06B070BD0020014044380240E8
:100BE00000000240106402405C080020F8B50E4688
:100BF00000210446009190F83C00012807D0012014
:100C000084F83C0020688368DB0702D011E00220F2
:100C1000F8BD836843F0010383602D482D4B0068C5
:100C2000B0FBF3F000EB400000E0401E0090002815
:100C3000FBD120688368DB0748D0236C40F2016554
:100C4000AB4343F4807323644068400505D5206CB2
:100C500020F4005040F480502064206CC00404D57F
:100C6000606C20F00600606400E0616484F83C1071
:100C7000A16B1A48184DC863A16B19480864A16B91
:100C80001848C86421686FF0220008602068416835
:100C900041F0806141602068816841F48071816029
:100CA0002168134632464C31A06B00F06BF968683E
:100CB000C006206802D00C49884207D1816811F033
:100CC000405F03D1816841F0804181600020F8BD20
:100CD0000407002040420F00002301408305000864
:100CE00007060008F10500080020014090F83510C3
:100CF000022903D08021416501207047052180F839
:100D000035100068016821F0010101600020704782
:100D10002DE9F84304464FF00009CDF800906348F0
:100D20004FF41651A56D0068B0FBF1F72E6894F8EA
:100D30005C10082000FA01F131420FD021680A68E6
:100D400052070BD50A6822F004020A6094F85C107E
:100D50008840A860606D40F00100606594F85C1008
:100D60004FF0010808FA01F0304208D021684969C3
:100D7000090604D5A860606D40F00200606594F833
:100D80005C1004208840304208D021680968890737
:100D900004D5A860606D40F00400606594F85C10B4
:100DA00010208840304218D021680968090714D5FE
:100DB000A86020680168490304D50068000308D5CD
:100DC000A16C07E00168C90503D4016821F008019E
:100DD0000160216C09B12046884794F85C102020FE
:100DE0008840304231D021680968C9062DD5A860F5
:100DF00094F8350005282068016806D0490347D5D6
:100E0000006800031DD4616C1CE021F01601016034
:100E10002068416921F080014161206C08B9A06C13
:100E200020B12068016821F00801016094F85C108D
:100E30003F208840A86084F8349084F83580216D84
:100E40001FE0E16B09B120468847606D00282BD078
:100E5000606DC00714D0052084F835002068016853
:100E600021F0010101600098401C0090B84203D8B5
:100E700020680068C007F6D184F8349084F8358083
:100E8000E16C002910D001B02046BDE8F0430847CE
:100E90000168C905D5D4016821F01001016084F80A
:100EA000349084F83580CCE7BDE8F883040700204F
:100EB0002DE9F041044600F06DF906465CB10025CD
:100EC00084F83450022084F835002068016821F04D
:100ED000010101600DE00120BDE8F08100F05AF948
:100EE000801B052805D920206065032084F8350083
:100EF000F2E720680068C007F0D122681168204836
:100F00000140D4E901031843D4E9033633431843BD
:100F100063691843A3691843E3691843236A1843B4
:100F20000843616A042903D1D4E90B131943084328
:100F3000106020684069666A20F0070130460E4361
:100F4000012704280CD1A06A0643E06A40B120467C
:100F5000FFF736FC20B14020606584F83570BAE7B1
:100F6000206846612046FFF717FC94F85C203F217B
:100F700091408160656584F835700020ACE7000021
:100F80003F8010F02DE9F0410446866D90F8340062
:100F9000002501280DD0012084F8340094F8357024
:100FA0000020012F07D084F8340002252846BDE830
:100FB000F0810220FBE7022784F835706065204647
:100FC000FFF728FC94F85C103F208840B060206850
:100FD000016841F016010160206C20B120680168B1
:100FE00041F0080101602068016841F001010160E1
:100FF000DCE700002DE9F84F00224FF0010803253F
:101000004FF00F0E0B6808FA02F42340A34271D18F
:101010004E68012E05D0022E03D0112E01D0122EC3
:1010200015D18668570005FA07FC26EA0C06D1F8A8
:101030000CC00CFA07FC4CEA060CC0F808C0466865
:10104000A6430C79C4F30014944034434460C6684A
:10105000570005FA07FC8C6826EA0C06BC403443AE
:10106000C4604C68022C01D0122C13D1D40800EBC0
:101070008404A346D4F8209054074FEAD46A0EFAA9
:101080000AF629EA06090E6906FA0AF646EA090688
:10109000CBF8206004680E7924EA0C0406F00306FD
:1010A000BE40264306604C68E40056D52E4C2668A8
:1010B00046F480462660246822F0030604F4804447
:1010C00000942A4C3444A446D4F808489607370FB5
:1010D0000EFA07F6B443264EB04201D1002615E0C1
:1010E000244EB04201D1012610E0234EB04202D17D
:1010F00002260BE031E0214EB04201D1032605E08B
:101100001F4EB04201D1042600E00726BE40264310
:10111000CCF808681B4E34684F689C43FF0300D529
:101120001C433460174E361D34684F689C43BF0320
:1011300000D51C433460134E083634684F689C4316
:10114000FF0200D51C4334600E4E0C3634684F68E5
:101150009C43BF0200D51C433460521C102AFFF48C
:1011600051AFBDE8F88F0000443802400030014024
:10117000000002400004024000080240000C02404F
:1011800000100240003C01400AB18161704709042F
:10119000FBE700000148806870470000F806002067
:1011A000024881680278114481607047F806002087
:1011B0000B4810B5016841F400710160016841F409
:1011C00080610160016841F480710160032000F0DA
:1011D0006FF8002000F006F800F024F8002010BDA1
:1011E000003C024070B50D4D04464FF47A712878EA
:1011F000B1FBF0F00A490968B1FBF0F000F004FB24
:1012000048B9102C07D200222146501E00F030F8B9
:1012100000206C6070BD012070BD0000F806002049
:10122000040700200A4808B5016841F480410160C4
:10123000006800F4804000900548001F016841F0FC
:1012400080510160006800F08050009008BD0000EF
:1012500044380240002809DB00F01F0201219140C0
:101260004009800000F1E020C0F800117047000044
:10127000F0B40E4B1B680C46C3F30223C3F1070501
:10128000042D00D90425191D072901D2002300E0EF
:10129000DB1E012606FA05F1491E214099409E40B9
:1012A000761E16403143F0BC01F015BA0CED00E09B
:1012B000064900F0070208684FF6FF03184040EAAD
:1012C0000220034A10430860704700000CED00E064
:1012D0000000FA052DE9F0470E46050065D0DFF85D
:1012E0001481D8F80000F7B200F00F00B04207D226
:1012F00088F80070D8F8000000F00F00B04254D118
:1013000028683D4C810712D5400703D5206840F47A
:10131000E05020602878000703D5206840F4604042
:1013200020602068A96820F0F00008432060287839
:10133000C0072DD0304968680839012812D002282A
:1013400013D0032811D00968890700292DDA2168F4
:1013500021F0030101432160FFF71CFF814641F2A8
:10136000883A0EE009688903EFE709688901ECE72C
:10137000FFF710FFA0EB0901514502D90320BDE89A
:10138000F0872068696800F00C00B0EB810FEFD1A6
:10139000D8F80010404601F00F01B14207D907709C
:1013A000006800F00F00B04201D00120E7E7287884
:1013B000400705D52068E96820F4E0500843206024
:1013C0002878000706D52068296920F4604040EAA3
:1013D000C100206000F038F82168084AC1F3031109
:1013E000515CC8400649086006480068FFF7FAFEED
:1013F0000020C4E7003C024008380240A42700084F
:1014000004070020FC06002004480549006809681C
:10141000044AC1F38221515CC84070470407002090
:1014200008380240B42700080448054900680968E4
:10143000044AC1F34231515CC840704704070020A0
:1014400008380240B4270008154810B5006810F0AD
:101450000C02144813D01449042A0FD0082A0ED1C4
:101460000F4C241F2268236802F03F025B0207D55D
:101470002068C0F38810A0FB010106E0084610BDFB
:101480002168C1F38811A1FB00010023FEF7A0FE33
:101490002168C1F30141491C4900B0FBF1F010BDC6
:1014A000083802400024F40040787D012DE9F84F0F
:1014B00004006ED02078DFF83C93C007A9F1040542
:1014C0004AD009F104000168C1F38101012908D063
:1014D0000068C0F3810002280AD1D9F80000400258
:1014E00006D52868800337D560680028E1D033E04E
:1014F0006068B0F5803F10D0B0F5A02F286810D0FC
:1015000020F480302860286820F4802028606068FB
:10151000A8B1FFF73FFE06460DE0286840F4803092
:10152000F4E740F480202860F7E700BFFFF732FEC1
:10153000801B642873D828688003F7D50CE0FFF778
:1015400029FE064605E000BFFFF724FE801B642845
:10155000F0D828688003F7D42078DFF89C828007D1
:101560004FF0000A3ED5A348001D016811F00C0F92
:1015700008D00068C0F3810002280BD1D9F8000020
:10158000400207D42868800716D5E068012800D1FA
:1015900012E02BE1E068B8B10120C8F80000FFF7C5
:1015A000F9FD064605E000BFFFF7F4FD801B0228A9
:1015B000C0D828688007F7D52868216920F0F8008E
:1015C00040EAC10028600DE0C8F800A0FFF7E2FD86
:1015D000064604E0FFF7DEFD801B02281FD82868BE
:1015E0008007F7D42078000722D5824E83486169AE
:1015F000703671B101210160FFF7CCFD074604E0B0
:10160000FFF7C8FDC01B022809D830688007F7D54E
:101610000EE0C0F800A0FFF7BDFD074605E082E040
:10162000FFF7B8FDC01B02287DD830688007F7D4CB
:101630002078400768D5DFF8BCB100270BF13C0BE0
:10164000DBF80000C0000BD4DBF8001041F0805143
:10165000CBF80010DBF80000012700F0805000906C
:10166000674E3068C00510D4306840F48070306038
:10167000FFF790FD009005E0FFF78CFD0099401A00
:10168000022850D83068C005F6D55A4EA0686C368E
:1016900001280FD00528306810D020F001003060FC
:1016A000306820F004003060A068B8B1FFF772FD28
:1016B00000900FE0306840F00100F4E740F00400D3
:1016C0003060F7E7FFF766FD0099411A41F2883074
:1016D000814266D830688007F4D50EE0FFF75AFDE6
:1016E000009007E0FFF756FD0099411A41F288305B
:1016F000814256D830688007F4D42FB1DBF800104F
:1017000021F08051CBF80010A069C8B33949091DF8
:101710000968C1F3810102294AD00228504607D046
:10172000C8F8600000E03CE0FFF734FD04463BE011
:101730004746C8F86000FFF72DFD064605E000BFEC
:10174000FFF728FD801B02282BD828688001F7D4DA
:10175000D4E907010843A16A2A4A490802EB01417A
:10176000626A41EA8211084394F82C1040EA016150
:10177000C9F8001001203866FFF70CFD044606E0AA
:1017800036E000BFFFF706FD001B022809D82868D5
:101790008001F7D52CE000BFFFF7FCFC001B0228FE
:1017A00002D90320BDE8F88F28688001F4D41FE037
:1017B0000128F7D0D9F80000E26900F480019142D5
:1017C00014D1226A00F03F0191420FD147F6C07157
:1017D000626A0140914209D1A26A00F4403191420B
:1017E00004D1E16A00F07060884201D00120D9E79D
:1017F0000020D7E70438024000004742800E4742ED
:10180000007000400000FFFF10B5401EB0F1807F67
:1018100001D3012010BD4FF0E02460610F2160175B
:1018200000F059FF0020A06107202061002010BDBA
:101830007047704770B590F83C20012A2CD00124E5
:1018400080F83C40022280F83D2003685A689D6879
:1018500022F070060A6832435A60104B02689A42BE
:101860000ED0B2F1804F0BD00D4B9A4208D00D4BE9
:101870009A4205D00C4B9A4202D00C4B9A4204D1AA
:10188000496825F080031943916080F83D400021AC
:1018900080F83C10084670BD022070BD0000014079
:1018A0000004004000080040000C004000400140DF
:1018B00010B5040003D094F83D0010B107E00120FA
:1018C00010BD002084F83C00204600F00DF80220F6
:1018D00084F83D00211D206800F04EFD012084F8B1
:1018E0003D00002010BD000008B501681D48B1F1A1
:1018F000804F11D01C4A91421DD1016841F0020174
:1019000001600068002200F00200009011461D20D6
:10191000FFF7AEFC1D201FE0016841F001010160EE
:101920000068002200F00100009011461C20FFF723
:101930009FFC1C2010E00D4A914211D1016841F03A
:10194000040101600068002200F0040000901146CC
:101950001E20FFF78DFC1E20BDE80840FFF77ABC73
:1019600008BD00004038024000040040000800406C
:101970000168CA6842F00102CA600068816801F02B
:101980000701062903D0016841F001010160002030
:10199000704770B5044690F83C00012817D0012527
:1019A00084F83C50022084F83D002068826822F0D0
:1019B000770222F47F4282600868502830D00DDC24
:1019C00020284DD005DC98B310283BD148E00220F8
:1019D00070BD302844D0402834D139E0602828D068
:1019E000702806D0B0F5805F2CD0B0F5005F29D10B
:1019F0000AE0CB68D1E90121206800F009FD2068E8
:101A0000816841F0770109E0CB68D1E901212068C4
:101A100000F0FEFC2068816841F48041816011E0A3
:101A2000CA684968206800F005FD5021206807E079
:101A300016E0CA684968206800F00DFD6021206842
:101A400000F0F0FC84F83D50002084F83C0070BDAC
:101A5000CA684968206800F0EDFC40212068EFE783
:101A6000226801461046EBE7704770B504460068EF
:101A700001694FF00005C943890715D4C168C943FE
:101A8000890711D4E91E016101202077206880694F
:101A90008007204602D0FFF7E7FF04E000F098F847
:101AA000204600F096F8257720680169C943490768
:101AB00017D4C168C943490713D46FF00401016109
:101AC000022020772068806910F4407F204602D0F1
:101AD000FFF7CAFF04E000F07BF8204600F079F839
:101AE000257720680169C943090716D4C168C9432D
:101AF000090712D46FF008010161042020772068E3
:101B0000C0698007204602D0FFF7AEFF04E000F076
:101B10005FF8204600F05DF8257720680169C94329
:101B2000C90617D4C168C943C90613D46FF01001A0
:101B30000161082020772068C06910F4407F2046AA
:101B400002D0FFF791FF04E000F042F8204600F0D9
:101B500040F8257720680169C943C90708D1C168E1
:101B6000C943C90704D1891E0161204600F032F83B
:101B700020680169C943090609D4C168C943090637
:101B800005D46FF0800101612046FFF751FE206807
:101B90000169C943490609D4C168C943490605D446
:101BA0006FF040010161204600F05EF82068016995
:101BB000C94389060BD4C168C943890607D46FF0AD
:101BC000200101612046BDE87040FFF732BE70BDC4
:101BD0007047704710B5214904460068096888427B
:101BE00031D11F490622A1F5A470FEF7FFFF1C4961
:101BF0001C4A088800EE100AB8EE400A82ED090A75
:101C0000488800EE100AB8EE400A82ED0A0A888879
:101C100000EE100AB8EE400A82ED0B0AC88800EE0A
:101C2000100AB8EE400A82ED0C0A088900EE100A8C
:101C3000B8EE400A82ED0D0A488900EE100AB8EEAF
:101C4000400A82ED0E0A0549206840310968884241
:101C500003D1BDE8104000F007B910BD50070020C7
:101C600050080020000000207047704770B50268DF
:101C700004461068D168536910F00F0F52D003F07A
:101C8000010501F490762E435FD0C20705D0CA0546
:101C900003D5E26B42F00102E263420705D5DA07A1
:101CA00003D0E26B42F00202E263820705D5DA0755
:101CB00003D0E26B42F00402E263020707D501F0B1
:101CC00020022A4303D0E26B42F00802E263E26B97
:101CD000002A33D0800604D5880602D5204600F0BD
:101CE000E2FB20684069E16BC0F38010090700D473
:101CF00028B3204600F0C9FB2068416949061AD57F
:101D0000416921F040014161606BA0B11B4901654F
:101D1000606BFEF7EBFF002810D0606B016DBDE833
:101D200070400847830610D58B060ED52046BDE8C7
:101D3000704000F0B8BB2046FFF797FF70BD20460B
:101D4000FFF793FF0020E06370BD030606D50B0686
:101D500004D52046BDE8704000F084BC4006F3D5B1
:101D60004806F1D5D168204621F04001D1602021FC
:101D700084F8391000F075F870BD00007B2400086D
:101D800070B5040004D094F83900002510B106E0C5
:101D9000012070BD84F83850204600F023F824203C
:101DA00084F839002068C16821F40051C1602046E0
:101DB00000F0C4FB2068016921F4904101612068B2
:101DC000416921F02A0141612068C16841F4005154
:101DD000C160E563202084F8390084F83A000020CF
:101DE00070BD000010B586B0044614216846FEF7A9
:101DF00027FA18492068884229D11748002102682B
:101E000042F010020260006800F0100005901248D5
:101E10001438026842F001020260006800F001001C
:101E200005904FF4C06000900220CDE9010103202D
:101E300003900720049069460848FFF7DBF800226A
:101E400011462520FFF714FA2520FFF703FA06B004
:101E500010BD000000100140443802400000024064
:101E600070477047FEE700002DE9F0478E4CB4F94B
:101E70000220B2F5C87F21DA04F1900000EB820164
:101E800094F90000D1ED000A00EE100A642AB8EEC1
:101E9000C00A20EE800A84ED0F0A04DA01F58061A1
:101EA000D1ED2C0A01E051ED640A00EE100AB8EE03
:101EB000C00A20EE800A84ED100A01E00020608054
:101EC0006088401C608004F1240090EC030AFEF757
:101ED00051FC84ED110A04F1300090EC030AFEF786
:101EE00049FC84ED120AD4ED0B0A94ED0A0AFEF7C0
:101EF0002BFC84ED130AD4ED0E0A94ED0D0AFEF7C7
:101F000023FC84ED140AD4ED020A94ED031AD4EDF7
:101F1000111A94ED072A60EE812AD4ED050A634870
:101F2000002771EEE00A02EEE02A84ED152AD4EDD6
:101F3000130A94ED061A30EEC13A94ED081A02EE37
:101F4000C31A84ED161AD0ED023AD4ED122A90EDA0
:101F5000033A23EE800A23EEA24AA0F5CC60A0F15A
:101F6000080A03EE200A03EE214AD0ED012A00F50B
:101F7000C966A0F1840902EE810A02EE824A84ED6C
:101F8000174A84ED180AC4ED060AC4ED051A00BF0D
:101F900007EB470085198046A97816F8080000EE7F
:101FA000101A6978B8EE401A00EE101AF8EE400ADE
:101FB00000EE100AB8EE400AFEF7DCFB84ED190AC9
:101FC000A87800EE100A6878F8EE400A00EE100AD1
:101FD000B8EE400AFEF7B8FB84ED1A0A94F9010046
:101FE00094ED191A00EE900AF8EEE00A60EE811AFC
:101FF00000EE900AC4ED1E1AF8EEE00A20EE801AF8
:1020000084ED1F1A9AED012A94ED170A02EE210AB7
:1020100084ED1C0AD4ED180A42EE010AC4ED1D0A33
:1020200094ED0F1A31EE400A94ED101A20EE000ADA
:1020300071EE600A00EEA00A84ED1B0AD4ED040ADA
:10204000B4EEE00AF1EE10FA13D284ED040A16F8A9
:10205000080008B1012100E0002189F8001069782A
:10206000484601B101214170A97801B1012189F8E7
:1020700002107F1C072F8BDD0D4D4C4699F8002078
:102080004FF400512846FFF77FF862784FF4804103
:102090002846FFF779F8A2782846BDE8F0474FF4C4
:1020A0000041FFF771B8000000000020E8060020A2
:1020B000000C02407FB50024234800940194029450
:1020C00020490394016001254FF480310561C0E986
:1020D0000114057680F820401C49C0E90A14062640
:1020E000C661C46080F830404561FEF7FEFCCDE972
:1020F00000450224694614480294FEF7A3FBCDE98B
:10210000005469461048FEF79DFB0094032469467D
:102110000D480194FEF796FB0094042469460A4892
:102120000194FEF78FFB009405246946064801944C
:10213000FEF788FBCDE9004669460348FEF782FBBF
:102140007FBD000000200140080700200100000FB3
:1021500070B586B014216846FEF772F8164800255F
:10216000016841F080010160016801F08001059182
:10217000016841F001010160016801F00101059170
:10218000016841F00801016000680C4E00F0080091
:102190004FF47C440590002221463046FEF7F4FFC0
:1021A0000120CDE900400320CDE9025069463046C8
:1021B000FEF720FF06B070BD30380240000C024030
:1021C00010B586B000241048009401940294039442
:1021D00004944FF08041059401606321C0E901142B
:1021E000C0E903148461FFF763FB4FF48050009053
:1021F00069460548FFF7CDFB049404A902480594FD
:10220000FFF718FB06B010BD5007002010B586B0D0
:1022100000241048009401940294039404940C49FF
:102220000594C0E900148460C46004618461FFF710
:102230003FFB4FF48050009069460648FFF7A9FB2A
:10224000049404A903480594FFF7F4FA06B010BDFE
:10225000000400409007002010B586B0002412480A
:10226000009401940294039404940E49059401602F
:1022700040F2E731C0E901146321C0E9031484612D
:10228000FFF716FB4FF48050009069460648FFF7B1
:1022900080FB049404A904480594FFF7CBFA06B028
:1022A00010BD000000080040D0070020FEE7704786
:1022B00070477047FEF774BF30B593B03021684661
:1022C000FDF7BEFF14210CA8FDF7BAFF1848002542
:1022D000016841F080510160006800F08050119069
:1022E0001448016841F4404101600068022400F490
:1022F0004040119001200090000401908001CDE940
:1023000006400C2008906020CDE9090404200B90C1
:102310006846FFF7CBF80CA90F2081E83100E002F6
:10232000CDE90F0503210CA8FEF7D4FF13B030BD93
:1023300040380240007000400548016841F47001D7
:10234000016003494FF00060803908607047000069
:1023500088ED00E00148FFF788BB0000500700202F
:102360000148FFF782BB0000900700200148FFF7FB
:102370007CBB0000D0070020F0B502681D4B1E4C4E
:102380009F031E4D1E4E984207D0B84205D0A04272
:1023900003D0A84201D0B04204D122F0700C4A68A8
:1023A00042EA0C02984210D0B8420ED0A0420CD0A3
:1023B000A8420AD0B04208D0124CA04205D0124C1C
:1023C000A04202D0114CA04203D122F44074CA684A
:1023D00022434C6922F08002224302608A68C26272
:1023E0000A688262984201D1096901630121416151
:1023F000F0BD000000000140000400400008004063
:10240000000C0040004001400044014000480140F1
:1024100010B5846842EA032224F47F440A4322432D
:10242000826010BD826822F070020A4342F0070108
:102430008160704710B5036A046A24F001040462E5
:10244000846924F0F00444EA021423F00A020A43E7
:102450008461026210BD10B5036A23F010030362A9
:102460008369046A23F4704343EA023224F0A00330
:1024700043EA01118261016210BD10B5806B002139
:10248000C185C184FFF7F1FB10BD0168CA6822F461
:102490009072CA6001684A6922F001024A612021F3
:1024A00080F83A10704710B590F83A10222901D000
:1024B000022010BD8168B1F5805F11D0016900294B
:1024C00001681FD0496801F07F03816A4A1C82625B
:1024D0000B70C18D491E0904090CC18518D02BE071
:1024E0000269816A002A0268526805D0D2B20A8065
:1024F000816A491C8162ECE7C2F308020A80816AA2
:10250000891CF7E74A68816A4B1C83620A70E0E71E
:102510000168CA6822F02002CA600168CA6822F411
:102520008072CA6001684A6922F001024A61202172
:1025300080F83A10FFF794FC002010BD2DE9F0411F
:10254000044600680169E26821F4405111430161C9
:102550002169A068E2690843616911430843216861
:10256000CA6849F20C639A430243CA602068416911
:10257000A26921F4407111434161E0691927642582
:102580003226B0F5004F354A354920684FF0000833
:1025900006D0884201D0904236D1FEF745FF35E0A3
:1025A000884201D0904202D1FEF73EFF01E0FEF7E3
:1025B0002BFF61684A18A0FB070148EB0803FDF7F1
:1025C00007FE0146B0FBF5F00201B1FBF5F06FF03C
:1025D0001803584301EB800006EBC000B0FBF5F098
:1025E00000F0F80002EB4002B1FBF5F0584301EBBC
:1025F000800006EBC000B0FBF5F000F0070021689A
:1026000010448860BDE8F081FEF7FEFE61688B0F24
:102610008A00A0FB0701FDF7DBFD0146B0FBF5F0EA
:102620006FF01802504301EB800006EB0010B0FB86
:10263000F5F000F0F002B1FBF5F002EB0012B1FB97
:10264000F5F06FF01803584301EB800006EB001023
:10265000B0FBF5F000F00F00D1E7000000140140DE
:102660000010014090F83910212901D00220704754
:102670008168B1F5805F016A0BD04A1C0262026872
:1026800009785160C18C491E0904090CC1840ED01F
:1026900017E009880268C1F3080151600169002947
:1026A000016A02D0491C0162ECE7891CFBE7016862
:1026B000CA6822F08002CA600068C16841F0400127
:1026C000C1600020704700000148FFF7CFBA00004A
:1026D00010080020FEE70907090E002804DB00F1BE
:1026E000E02080F80014704700F00F0000F1E020B7
:1026F00080F8141D704702E008C8121F08C1002AA4
:10270000FAD170477047002001E001C1121F002A72
:10271000FBD1704708B5FEF74BFDFFF7CDFDFFF786
:1027200017FD1B480024016841F480010160006826
:10273000224600F48000009021463820FEF798FDE4
:102740003820FEF787FDFFF7B5FCFFF739FDFFF7EF
:102750005DFD11480F4901604FF4E131C0E90114FA
:102760000C21C460C0E904418461C461FFF708FB27
:10277000FFF772FD0848C038FFF7FAF806488038BE
:10278000FFF7F6F804484038FFF7F2F8FEE70000DC
:1027900030380240001001401008002000061016DA
:1027A00000061016000000000000000001020304F3
:1027B000060708090000000001020304DC270008E6
:1027C000000000200807000024050008B82C0008BD
:1027D00008070020B80500000627000830040C1880
:1027E0000001000E69CDAF663900409C4600007ABA
:1027F00044000120113659A33C48C4143CB6671666
:102800003CE60568BF8C100D499D803C499D003D0C
:10281000EEEB403D0C00FF003D9CC4A03D80B7C0E6
:102820003D65AAE03DA54E003E1748103E522720C8
:102830003E8E06303EC9E53F3ECEAA4F3E9B555FD9
:102840003E69006F3E36AB7E3EE71D873E17D98E50
:102850003E2B87963E3F359E3E39D6A53E166AAD45
:102860003EF4FDB43E9A77BC3E41F1C33EB150CB3D
:102870003E21B0D23E7502DA3E933AE13EB072E8B4
:102880003E9790EF3E7DAEF63E2DB2FD3ED34D021B
:102890003F8FC2053F302A093F448B0C3FC9E50FEB
:1028A0003F3333133F107A163FD0B3193F04E71C70
:1028B0003F1B0D203FA52C233F143F263FF54A29FF
:1028C0003FBA492C3F643B2F3F8126323F8104357C
:1028D0003F67D5373FBE9F3A3F6D563D3F8E06401E
:1028E0003F93A9423F7D3F453F4BC8473F8C4A4AF3
:1028F0003F24B94C3FA01A4F3F006F513FD3BC5308
:102900003FFDF6553F0B24583FFE435A3FD6565CD9
:102910003F925C5E3F32308355603FB840623F93E8
:1029200018643F54E3653FF9A0673F8351693FF165
:10293000F46A3FB6846C3F5F076E3F60766F3FD3AB
:10294000DE703F9C33723F4A7B733F4FAF743F3919
:10295000D6753F07F0763F2BF6773F35EF783F95FA
:10296000D4793FDAAC7A3F03787B3F832F7C3FE812
:10297000D97C3FA4707D3F44FA7D3FC9767E3FA459
:10298000DF7E3FD7347F3FEE7C7F3FE9B77F3F3B21
:10299000DF7F3F72F97F3F0000800821102118215E
:1029A000202128213021382140214821502158213F
:1029B000602168217021782180218821902198212F
:1029C000A021A821B021B821C021C821D021D8211F
:1029D000E021E821F021F8250025082510251825FB
:1029E00020252825302538254025482550255825DF
:1029F00060256825702578258025882590259825CF
:102A0000A025A825B025B825C025C825D025D825BE
:102A1000E025E825F025F82900290829102918299A
:102A2000202928293029382940294829502958297E
:102A3000602968297029782980298829902998296E
:102A4000A029A829B029B829C029C829D029D8295E
:102A5000E029E829F029F82D00034D08032E000C89
:102A6000035E3C20031EBC20031EBD200312BD0CD0
:102A70001EBD200312BD301EBD200312BD4012BE7C
:102A8000481EBE20031EBE20031EBE200312BE68C9
:102A900012BE7012BE781EBE200312BE8812BE90F7
:102AA0001EBE20031EBE200312BEA81EBE20031E93
:102AB000BE200312BEC01EBE200312BED012BED85E
:102AC0001EBE20031EBE20031EBE200312BEF8162B
:102AD000BE001EBE20031EBE200316BF1816BF2058
:102AE0001EBF200316BF3016BF381EBF200316BFFF
:102AF0004816BF501EBF200316BF601EBF20031E16
:102B0000BF200316BF7816BF801EBF200316BF90DC
:102B10001EBF20031EBF200316BFA81EBF20031622
:102B2000BFB816BFC01EBF200316BFD01EBF2003F4
:102B300016BFE01EBF20031EBF200316BFF81EBF36
:102B400020031EBF20031ABF101ABF181EBF200388
:102B50001EBF20031ABF301EBF20031EBF20031A52
:102B6000BF481EBF20031ABF581ABF601EBF2003F4
:102B70001EBF20031ABF781ABF801ABF881ABF90E1
:102B80001ABF981EBF20031EBF20031EBF20031ABA
:102B9000BFB81ABFC01EBF20031EBF20031ABFD874
:102BA0001EBF20031EBF20031EBF20031EBF200325
:102BB0001EBF20031EBF08031EBF10031EBF180345
:102BC0001DB0043280082110211821202128213035
:102BD000213821402148215021582160216821704D
:102BE0002178218021882190219821A021A821B03D
:102BF00021B821C021C821D021D821E021E821F02D
:102C000021F8250025082510251825202528253000
:102C100025382540254825502558256025682570EC
:102C20002578258025882590259825A025A825B0DC
:102C300025B825C025C825D025D825E025E825F0CC
:102C400025F82900290829102918292029282930A0
:102C5000293829402948295029582960296829708C
:102C60002978298029882990299829A029A829B07C
:102C700029B829C029C829D029D829E029E829F06C
:102C800029F82D00034D08032E000C032006BC017B
:102C900000000104510712010321101C0600EFACD3
:102CA0007D3F6C061EBC6406223F0C21146E10850D
:082CB0000600040024F40000FA
:040000050800019955
:00000001FF
