:020000040800F2
:10000000480C002001010008A32300080D1F000870
:10001000A12300080D0900082127000800000000A6
:10002000000000000000000000000000A7230008FE
:10003000EF09000800000000A5230008A92300081C
:100040001B0100081B0100081B0100081B01000820
:100050001B0100081B0100081B0100081B01000810
:100060001B0100081B0100081B010008B90900085A
:100070001B0100081B0100081B0100081B010008F0
:100080001B0100081B0100081B0100081B010008E0
:100090001B0100081B0100081B0100081B010008D0
:1000A0001B010008552400081B0100081B01000863
:1000B0001B0100081B0100081B0100081B010008B0
:1000C0001B0100081B0100081B0100081B010008A0
:1000D0001B010008152700081B0100081B01000870
:1000E0001B0100081B0100081B010008DFF80CD0F1
:1000F00000F032FB0048004761270008480C002050
:100100000648804706480047FEE7FEE7FEE7FEE7B1
:10011000FEE7FEE7FEE7FEE7FEE7FEE70D24000848
:10012000ED000008202A04DB203A21FA02F0002129
:10013000704721FA02F3D040C2F1200291400843F7
:1001400019467047D2B201E000F8012B491EFBD2DC
:1001500070470022F6E710B513460A4604461946D2
:10016000FFF7F0FF204610BDF0B480EA0102D40F83
:100170004200B2EB410F02D20246084611464A0045
:1001800042D0C30DDDB2C1F3C752AD1A202D35DA0E
:10019000C1F3160141F4000204B15242C5F1200638
:1001A00002FA06F12A411044B3EBD05F23D0C4B168
:1001B000012DA0EBC35009DCF0BC4FF0004202EA75
:1001C000C352DBB200F5000000F03ABA400000F183
:1001D000807000EBC350A0F1807040EAD1704900FC
:1001E00009E0490841EAC071A0EBC35000F50000E6
:1001F000400800EBC350F0BC00F019BA6142012284
:1002000002EB4101001BF6E7F0BC704781F00041B2
:10021000AAE780F00040A7E780EA010210B502F0EB
:100220000043400022D04A001FD0010E01EB1261B2
:10023000C0F35600C2F3560240F4000042F400023C
:10024000A0FB022000047F39140400D0401C50EAB7
:10025000124001D44000491EC2B20C0604EBD0107B
:10026000401C4008802A02D003E0002010BD20F08E
:100270000100002900DA0020184310BD30B480EAE4
:10028000010202F0004530F0004221F0004013D09E
:1002900090B1C30DD40DC2F31601C0F31600E41AD9
:1002A00041F4000140F400027D34914201D3641C0A
:1002B00000E04900002C02DA30BC002070474FF407
:1002C00000000023914201D3891A034340084FEAFA
:1002D0004101F7D151B1914202D14FF0004105E007
:1002E00002D24FF0010101E06FF0010103EBC450B5
:1002F000284430BC00F09BB9420005D0C0F3C7527F
:100300005242914201DC0020704700EBC15070471F
:100310002DE9FE4F804681EA0300C00F0C46009095
:1003200021F0004123F00045B8EB0200A94105D2BD
:100330004046214690461C460B46024623F00040AC
:10034000104347D0270DC7F30A00C3F30A510290A8
:10035000401A019040286BDAC3F3130040F4801B6D
:100360000098924620B10023D2EB030A63EB0B0BFB
:1003700001985946C0F14002504600F037F9064650
:100380000D4650465946019A00F03FF910EB08001F
:100390006141002487EA115284EAE7731A4340D08E
:1003A000009A62B3019A012A4FEA075215DC001B3A
:1003B00061EB02014FF0004202EA0752CDE9004230
:1003C000001C41F5801132462B4600F076F903B04F
:1003D000BDE8F08F40462146F9E7001B61EB0201C2
:1003E000001C41F5801300185B412018A2F500178E
:1003F00047EB030140EAD570B6196D4111E06D0875
:100400004FEA360645EAC0754FEA0752001B61EB1A
:100410000201001C41F5801149084FEA3000001923
:10042000514132462B4603B0BDE8F04F00F036B9DB
:100430000098012240000023D0EB020263EBE0733E
:10044000009821464FEAE074B8EB000061EB04012C
:10045000E9E783F000435BE781F0004158E72DE9CD
:10046000FE4F81EA030404F0004421F000410094AF
:100470004FF0000B23F0004350EA01045ED052EA33
:1004800003045BD0C3F30A54C1F30A552C44A4F20D
:10049000F3340194A0FB0254C1F3130141F4801121
:1004A000C3F3130343F4801301FB024400FB034E28
:1004B000840A970A44EA815447EA8357A4FB0768F1
:1004C00002958D0A05FB07854FEA932C04FB0C541B
:1004D0002705029D4FEA065847EA1637B5EB08058F
:1004E0006EEB070C870E920E47EA811742EA8312E1
:1004F000A7FB0201B6EB0B0164EB00042B0D43EAF2
:100500000C335E1844EB1C50DA465146E7FB0201FF
:10051000C5F313044FEA0B3343EA14534FEA043292
:10052000019C43EA0603A4F10C040294009CCDE96B
:1005300000B400F0C2F803B0BDE8F08F002001461F
:10054000F9E7C10F80EAE0700844CA07962300214A
:1005500000F076B896230022114600F071B80EB56F
:1005600040F2334102910021CDE900110A460B46C9
:1005700000F0A3F803B000BD00F0004230F00040EE
:100580000AD0C10D01F56071C0F3160042EA0151B5
:10059000C20840071143704700200146704701F030
:1005A000004330B421F0004150EA010206D00A0DA8
:1005B000A2F56072C1F31301002A02DC30BC0020F6
:1005C0007047440F44EAC104C100E01830BC00EB9E
:1005D000C25000F02CB80000002801DBC0F1004040
:1005E000002901DBC1F1004181427047202A04DB70
:1005F000203A00FA02F1002070479140C2F1200336
:1006000020FA03F3194390407047202A06DBCB17EA
:10061000203A41FA02F043EAE07306E041FA02F3BD
:10062000D040C2F12002914008431946704700298A
:10063000A8BF7047401C490008BF20F00100704768
:1006400010B4B0FA80FC00FA0CF050EA010404BFC8
:1006500010BC704749B1CCF1200421FA04F411FA1E
:100660000CF118BF012121430843A3EB0C01CB1D62
:100670004FEA00614FEA102042BF002010BC7047D3
:1006800000EBC35010440029A4BF10BC7047401CAD
:10069000490008BF20F0010010BC704710B5141EBF
:1006A00073F1000408DA401C41F1000192185B412B
:1006B0001A4301D120F0010010BD2DE9F04D924602
:1006C0009B4611B1B1FA81F202E0B0FA80F2203219
:1006D0009046FFF78BFF04460F4640EA0A0041EAC6
:1006E0000B0153465A46084313D0114653EA010002
:1006F00019D0C8F140025046FFF714FD05460E46DA
:10070000504659464246FFF771FF084305D0012085
:1007100004E020463946BDE8F08D0020054346EA56
:10072000E0762C4337430A986305E40AA0EB0800FF
:100730000022FD0A44EA47540A3002D5002001464F
:10074000E9E7010510196941DDE90845001969412A
:10075000BDE8F04DA2E70000064C074D06E0E0685A
:1007600040F0010394E8070098471034AC42F6D3F8
:10077000FFF7C0FCC0280008E028000870B58D18FD
:1007800010F8014B14F0030201D110F8012B2311D2
:1007900006D110F8013B03E010F8016B01F8016B82
:1007A000521EF9D1ABB110F8012B04F00C048A1AD7
:1007B0000C2C03D0A2EB84129B1C08E010F8014B18
:1007C000A2EB0422F8E712F8014B01F8014B5B1E83
:1007D000F9D5A942D4D3002070BD000070B50446FD
:1007E00000688168C943C9071CD1816821F00101F3
:1007F000816000F041FD05460FE000BF00F03CFDC8
:10080000401B022809D9A06A40F01000A062E06AEB
:1008100040F00100E062012070BD20688068C043A4
:10082000C007EBD0002070BD10B50146406A826A57
:1008300012F0500F05D0006A026BBDE81040084668
:100840001047816A41F40071816201688968C1F3CF
:10085000424107290CD1017B51B9816A21F4807191
:100860008162816AC90403D4816A41F00101816215
:1008700000F03EF910BD10B5406A816A41F04001B8
:100880008162C16A41F00401C16200F033F910BD18
:1008900010B5406A00F02DF910BD0000F8B5002633
:1008A0000446009600688168C943C90728D081685A
:1008B00041F001018160134813490068B0FBF1F079
:1008C00000E0401E00900028FBD100F0D5FC05465A
:1008D00011E000BF00F0D0FC401B02280BD9A06A39
:1008E00040F01000A062E06A40F00100E06284F88D
:1008F00024600120F8BD20688068C043C007E9D1AA
:100900000020F8BD0007002040420F00FEE7000075
:1009100010B5FFF724FE064A064BFFF7A0FD0022A4
:10092000054BFFF796FDBDE81040FFF738BE00000D
:1009300019FF3EE3C281803F0000304010B5FFF751
:1009400065FCFFF719FE044A044BFFF788FDBDE87C
:100950001040FFF724BE0000280F0BB5A679E23F38
:1009600070B50D4614460121FFF7C6FC2946FFF776
:100970004DFC2146FFF74AFCBDE870400149FFF7F6
:100980007DBC00000000404010B5FFF7E8FD064ABE
:10099000064BFFF764FD064A064BFFF75AFDBDE81C
:1009A0001040FFF7FCBD0000D1E80E62670A7D3FF2
:1009B000295C8FC2F5282C40014800F045BA0000A0
:1009C0000008002030B590F840500124AC40C56BC1
:1009D0006C60046863604368102B036803D09960FF
:1009E0000068C26030BD9A600068C16030BD704769
:1009F00070470000F8B50024009490F824202546A4
:100A0000012A12D0012280F824204A681F23072AD5
:100A10000DD20668776B521E02EB820293409F4311
:100A20000B6893401F43776319E00220F8BD066806
:100A30000D2A0AD2376BD21F02EB820293409F43EA
:100A40000B6893401F43376309E0F76A0D3A02EBE6
:100A5000820293409F430B6893401F43F7620A68EA
:100A6000072306680A2A0AD3F7680A3A02EB420209
:100A700093409F438B6893401F43F76008E03769BA
:100A800002EB420293409F438B6893401F433761C0
:100A90000A68102A01D0112A20D1124B02689A420A
:100AA00017D193681B0219D4936843F40003936031
:100AB0000968102912D10C490C4A0968B1FBF2F1FE
:100AC00001EB8101490000E0491E00910029FBD1A2
:100AD00004E0816A41F020018162012480F8245001
:100AE0002046F8BD002401400007002040420F00CE
:100AF00070477047704700002DE9F0414FF0000744
:100B000004003D467ED0A06A002628B9E66284F83B
:100B10002460204600F07EF82046FFF75FFEA16AC1
:100B2000C90600D420B1A06A40F01000A06269E0BC
:100B3000A16A21F4885141F00201A1626268E16971
:100B4000237B0A4347EA43010A43A1684FF48077B5
:100B5000B94209D0012907D05FF0000194F814C010
:100B6000BCF1010F02D00AE03946F7E7F3B1A36AFE
:100B700043F02003A362E36A43F00103E3622368C6
:100B8000D3F804C02CF4694C4CEA010CC3F804C03F
:100B900021688B68DFF870C003EA0C0313438B6095
:100BA000A168B9420BD0012909D00CE0DFF85CC084
:100BB000A3690CEB43330B4343F40061DFE7218A65
:100BC0000D05A5F580152168CB6A23F470032B432E
:100BD000CB62216889680E4B1940914208D1E662C8
:100BE000A16A21F0020141F00101A162BDE8F0819A
:100BF000A06A20F0020040F01000A062E06A40F01D
:100C00000100E0620120F1E7FDF7E1FF00E0FFFFF6
:100C1000FE0E1FFF70B586B00026054600960196B1
:100C20000296039600681A4988422FD119498869AB
:100C300040F400708861886900F40070049088694D
:100C400040F0040088618869694600F0040004905F
:100C50003F200090032001900F4800F017FA104C3D
:100C60000E48C4E900068020C4E90260400020610B
:100C7000800060612020A0610002E061204600F059
:100C80008DF908B1FFF7B4FE2C62656206B070BD45
:100C9000002401400010024000080140080002400A
:100CA000000800202DE9F047894604463B490068CA
:100CB0003B4F0E1D9046884201D0B84207D13068A4
:100CC00010F4702F03D001252846BDE8F08794F872
:100CD000240001280CD0012084F824002046FFF7CE
:100CE000DDFD05004FF0000004D084F82400EBE7A0
:100CF0000220EAE7A16A40F60162914341F4807163
:100D0000A1622168B94218D1326812F4702F14D050
:100D1000A16A41F48011A1623168490505D5A16A33
:100D200021F4005141F48051A162A16AC9040AD59D
:100D3000E16A21F00601E16206E0A26A22F4801273
:100D4000A2624968E9E7E06284F82400216A154854
:100D50008862216A1448C862216A144808632168BD
:100D60006FF0020008602068816841F48071816042
:100D7000216843464A464C31206A00F03DF920681C
:100D80008168C1F342410729816803D041F4801191
:100D9000816099E741F4A001FAE7000000240140D6
:100DA0000028014029080008910800087708000879
:100DB00010B590F821100024022903D0042181638A
:100DC00001243DE001680A6822F00E020A60016811
:100DD0000A6822F001020A601A4A0168914201D1B0
:100DE000012121E0174A1432914201D110211BE068
:100DF000144A2832914201D1891515E0114A3C323A
:100E0000914201D189140FE00E4A5032914202D131
:100E10004FF4803108E00B4A6432914202D14FF422
:100E2000801101E04FF08071064A083A51600121BB
:100E300080F82110002180F82010416B01B1884713
:100E4000204610BD080002402DE9F05FC16B0C6820
:100E500001680B68D0F840C0042202FA0CF2494D38
:100E6000DFF824A1494E4A4FDFF828B1DFF828E126
:100E700022422CD05A072AD50A68920603D40A685F
:100E800022F004020A600168A94201D1042219E09B
:100E9000514501D1402215E0B14202D14FF48062A8
:100EA00010E0B94202D14FF480420BE0594502D123
:100EB0004FF4802206E0714502D14FF4800201E038
:100EC0004FF080622F4908394A60C16A3BE04FF019
:100ED000020808FA0CF818EA040F4FF000094FF066
:100EE000010235D05FEA837832D50B689B0605D4C2
:100EF0000B6823F00A030B6080F821200168A942E7
:100F000001D1022219E0514501D1202215E0B14260
:100F100002D14FF4007210E0B94202D14FF40052F6
:100F20000BE0594502D14FF4003206E0714502D181
:100F30004FF4001201E04FF00072124908394A6084
:100F400080F82090816A00291AD0BDE8F05F084738
:100F5000082505FA0CF5254212D01B0710D50B68A1
:100F600023F00E030B6090F84010C36B02FA01F1FE
:100F70005960826380F8212080F82090016BE2E7BD
:100F8000BDE8F09F080002401C0002403000024013
:100F900044000240580002406C00024030B528B3C3
:100FA00008C8134914221944B1FBF2F18900C16346
:100FB00010498163022141771A6843F6F0718A4330
:100FC000D0E900142143D0E902452C4321430469B0
:100FD000214344692143846921431143196000215D
:100FE0004163012242770177084630BD012030BDC0
:100FF000F8FFFDBF0000024070B5044690F82000E5
:10100000002501280CD0012084F8200094F82160EC
:101010000020012E06D084F820000225284670BD4D
:10102000022070BD022684F82160A0632068066853
:1010300026F0010606602046FFF7C4FCE06A00289F
:101040002068016802D041F00E0106E021F00401A1
:1010500001602068016841F00A01016020680168B0
:1010600041F001010160D9E770B5044600F004F9D0
:101070000546601C02D004480078044400F0FCF8E7
:10108000401BA042FAD370BDF40600202DE9F84FB2
:10109000DFF8B891002409F1040A0AF1040B234691
:1010A0000F270BF1040EC9E00125A5402A40AA42F2
:1010B0007DD1674ED1F804C0ACEB0608B44532D000
:1010C00014DCBCF1030F3AD009DCBCF1000F2AD0CC
:1010D000BCF1010F1CD0BCF1020F31D11DE0BCF1FD
:1010E000110F17D0BCF1120F2AD119E0B8F5881FE3
:1010F00019D006DCB8F5803F15D0B8F5801F1FD198
:1011000011E0B8F5001F0ED0B8F5041F18D10AE0A1
:10111000CB6815E0CB681B1D12E0CB6808330FE0ED
:10112000CB680C330CE08B682BB1012B4FF008031C
:1011300003D0456104E0042302E0056100E00023E0
:10114000FF2A01D8064601E000F104064FEA8405B3
:1011500001D9A5F12005D6F8008007FA05FC28EA98
:101160000C0803FA05F548EA0508C6F800804D6842
:10117000ED0062D5374DAE6946F00106AE61AD694E
:1011800024F0030605F001050095334D06EB050C30
:10119000DCF80850A607360F07FA06F825EA080516
:1011A000DFF8B880404503D14FF0000817E044E075
:1011B000DFF8AC80404502D14FF001080FE0DFF8C6
:1011C000A480404502D14FF0020808E0DFF8988083
:1011D000404502D14FF0030801E04FF0040808FA3F
:1011E00006F848EA0508CCF808804D68D9F8006090
:1011F000ED034D4601D5164300E096432E604D6841
:10120000DAF80060AD03554601D5164300E0964379
:101210002E604D68DBF80060ED025D4601D5164397
:1012200000E096432E604D68DEF80060AD02754622
:1012300001D5164300E096432E60641C0D682A46D3
:10124000E5407FF431AFBDE8F88F000000040140B5
:101250000000111000100240000001400008014091
:10126000000C014000100140001401400AB101616E
:1012700070470904FBE700000148806870470000E0
:10128000F4060020024881680278114481607047AA
:10129000F4060020074810B5016841F01001016014
:1012A000032000F075F8002000F006F800F024F8A4
:1012B000002010BD0020024070B50D4D04464FF4D3
:1012C0007A712878B1FBF0F00A490968B1FBF0F0B7
:1012D00000F062FB48B9102C07D200222146501EB4
:1012E00000F036F800206C6070BD012070BD000079
:1012F000F4060020000700200C4808B5816941F081
:1013000001018161816901F001010091C16941F030
:101310008051C161C06900F080500090044841686C
:1013200021F0E06141F00071416008BD0010024011
:1013300000000140002809DB00F01F02012191405C
:101340004009800000F1E020C0F800117047000063
:10135000F0B40E4B1B680C46C3F30223C3F1070520
:10136000042D00D90425191D072901D2002300E00E
:10137000DB1E012606FA05F1491E214099409E40D8
:10138000761E16403143F0BC01F0CBB90CED00E005
:10139000064900F0070208684FF6FF03184040EACC
:1013A0000220034A10430860704700000CED00E083
:1013B0000000FA052DE9F84305460078354CC007D2
:1013C00054D0E0690026C00008D4E06940F08050A5
:1013D000E061E069012600F0805000902E4801682D
:1013E000C90512D40168804641F480710160FFF79D
:1013F00043FF074605E000BFFFF73EFFC01B642820
:1014000023D8D8F80000C005F6D5206A10F4407043
:1014100021D0A98801F4407181421CD0206A1F4963
:10142000012220F440700A6000220A602062C00796
:1014300011D0FFF721FF074641F2883808E000BFCE
:10144000FFF71AFFC11B414502D90320BDE8F8830D
:10145000206A8007F4D5206A696820F44070084348
:1014600020621EB1E06920F08050E061287880079A
:1014700005D56068A96820F440400843606028787A
:10148000C00605D56068E96820F480000843606004
:101490000020DBE7001002400070004040044242A0
:1014A0002DE9F0470F46050061D0434E306800F04B
:1014B0000700B84209D2306820F007003843306096
:1014C000306800F00700B84251D128683B4C8107D2
:1014D00012D5400703D5606840F4E060606028786A
:1014E000000703D5606840F4605060606068A968D8
:1014F00020F0F000084360602878C00728D06868B2
:10150000012810D02168022810D0890700292EDA7E
:10151000616821F0030101436160FFF7ADFE804681
:1015200041F288390DE021688903EFE78901EDE791
:10153000FFF7A2FEA0EB0801494502D90320BDE850
:10154000F0876068696800F00C00B0EB810FEFD1A4
:10155000306800F00700B8420BD9306820F007006F
:1015600038433060306800F00700B84201D00120F5
:10157000E5E72878400705D56068E96820F4E06071
:10158000084360602878000706D56068296920F460
:10159000605040EAC100606000F038F86168084AB5
:1015A000C1F30311515CC840064908600648006851
:1015B000FFF782FE0020C2E7002002400010024038
:1015C000A828000800070020F80600200448054964
:1015D00000684968044AC1F30221515CC840704761
:1015E0000007002000100240B82800080448054900
:1015F00000684968044AC1F3C221515CC840704781
:101600000007002000100240B828000812A185B091
:101610000FC98DE80F0014A0144A006804905168A7
:10162000134801F00C03042B10D0082B0ED1C1F38A
:101630008343C9031DF803000AD5516804AAC1F306
:101640004041515C0A4A5043B0FBF1F005B070478D
:1016500008494843FAE700000203040506070809A1
:101660000A0B0C0D0E0F10100102000000100240BA
:1016700000127A0000093D002DE9F84F040070D0F7
:101680002078C04DC00749D06868C0F381000128A8
:1016900007D06868C0F38100022809D16868C003D8
:1016A00006D52868800339D560680028E7D035E082
:1016B0006068B0F5803F0BD010B1B0F5A02F11D00D
:1016C000286820F480302860286820F4802002E018
:1016D000286840F480302860606890B1FFF7CCFD46
:1016E00006460AE0286840F480202860F0E700BF42
:1016F000FFF7C2FD801B642873D828688003F7D5E4
:101700000CE0FFF7B9FD064605E000BFFFF7B4FDAA
:10171000801B6428F0D828688003F7D420789A4E7C
:1017200080074FF001094FF0000839D5686810F0C4
:101730000C0F07D06868C0F38100022809D16868DF
:10174000C00306D42868800714D52069012808D171
:1017500010E02069B0B1C6F80090FFF78DFD074694
:1017600005E00AE1FFF788FDC01B0228C4D82868FD
:101770008007F7D52868616920F0F80040EAC100C9
:1017800028600DE0C6F80080FFF776FD074604E00C
:10179000FFF772FDC01B022823D828688007F7D402
:1017A000207800072CD57948A169D9B1C0F80090FC
:1017B000FFF762FD074604E0FFF75EFDC01B02284D
:1017C0000FD8686A8007F7D571484FF4FA5100685E
:1017D000B0FBF1F0009000BF0098411E0091FAD2DA
:1017E0000EE080E0C0F80080FFF746FD074604E009
:1017F000FFF742FDC01B022875D8686A8007F7D43E
:101800002078400760D5E8690027C00008D4E8695F
:1018100040F08050E861E869012700F080500090B6
:101820005C480168C90513D40168834641F480719E
:101830000160FFF721FD824606E000BFFFF71CFDB7
:10184000A0EB0A0064284ED8DBF80000C005F5D5EF
:10185000E06801280AD008B1052813D0286A20F0D2
:1018600001002862286A20F0040002E0286A40F0A3
:1018700001002862E06841F2883B98B1FFF7FCFC68
:1018800082460BE0286A40F004002862EEE700BFC1
:10189000FFF7F2FCA0EB0A0159455AD8286A8007E5
:1018A000F6D50CE0FFF7E8FC824605E0FFF7E4FC24
:1018B000A0EB0A0159454CD8286A8007F6D41FB11D
:1018C000E86920F08050E861E06988B36968C1F395
:1018D0008101022944D00228C6F8608004D0FFF7B5
:1018E000CBFC044638E034E0FFF7C6FC074604E0D2
:1018F000FFF7C2FCC01B02282BD828688001F7D450
:10190000206AB0F5803F05D16868A16820F40030F6
:1019100008436860D4E908010843696821F4741138
:1019200008436860C6F86090FFF7A6FC044606E02E
:1019300025E000BFFFF7A0FC001B022809D828689B
:101940008001F7D51BE000BFFFF796FC001B0228C3
:1019500002D90320BDE8F88F28688001F4D40EE096
:101960000128F7D06868226A00F48031914204D1DE
:10197000616A00F47010884201D00120EAE700207B
:10198000E8E70000001002400000424280044242AA
:10199000000700200070004010B5401EB0F1807FAD
:1019A00001D3012010BD4FF0E02460610F216017CA
:1019B00000F0B7FE0020A06107202061002010BDCC
:1019C0007047704770B590F83C20012A19D0012467
:1019D00000F83C4F0222427050F83C3C5A689D6827
:1019E00022F070060A684968324325F080052943D1
:1019F0005A6050F83C2C91604470002101700846F8
:101A000070BD022070BD10B5040003D094F83D00F5
:101A100010B107E0012010BD002084F83C002046F2
:101A200000F00CF8022084F83D00211D206800F031
:101A300017FD012084F83D00002010BD08B50C4AB8
:101A400001680C48914207D1816941F400618161CC
:101A5000806900F4006009E0B1F1804F07D1C169ED
:101A600041F00101C161C06900F00100009008BDB2
:101A7000002C01400010024070B5044690F83C0074
:101A8000012817D0012584F83C50022084F83D003D
:101A90002068826822F0770222F47F428260086820
:101AA000502830D00DDC20284DD005DC98B310280C
:101AB0003BD148E0022070BD302844D0402834D1CA
:101AC00039E0602828D0702806D0B0F5805F2CD08F
:101AD000B0F5005F29D10AE0CB68D1E90121206887
:101AE00000F0F4FC2068816841F0770109E0CB68E0
:101AF000D1E90121206800F0E9FC2068816841F407
:101B00008041816011E0CA684968206800F0F0FCFB
:101B10005021206807E016E0CA684968206800F094
:101B2000F8FC6021206800F0DBFC84F83D500020C8
:101B300084F83C0070BDCA684968206800F0D8FC91
:101B400040212068EFE7226801461046EBE7704726
:101B500070B50446006801694FF00005C943890764
:101B600015D4C168C943890711D4E91E0161012058
:101B70002077206880698007204602D0FFF7E7FFC2
:101B800004E000F098F8204600F096F825772068E9
:101B90000169C943490717D4C168C943490713D428
:101BA0006FF004010161022020772068806910F441
:101BB000407F204602D0FFF7CAFF04E000F07BF828
:101BC000204600F079F8257720680169C9430907A4
:101BD00016D4C168C943090712D46FF00801016126
:101BE000042020772068C0698007204602D0FFF7D4
:101BF000AEFF04E000F05FF8204600F05DF82577C6
:101C000020680169C943C90617D4C168C943C90618
:101C100013D46FF010010161082020772068C0699B
:101C200010F4407F204602D0FFF791FF04E000F05F
:101C300042F8204600F040F8257720680169C94342
:101C4000C90708D1C168C943C90704D1891E016108
:101C5000204600F033F820680169C943090609D419
:101C6000C168C943090605D46FF0800101612046AF
:101C7000FFF7A6FE20680169C943490609D4C16877
:101C8000C943490605D46FF040010161204600F0C8
:101C90003FF820680169C94389060BD4C168C9436C
:101CA000890607D46FF0200101612046BDE870402D
:101CB000FFF787BE70BD70477047000070B51249CE
:101CC0000068096888421ED10F4C80342088FEF7D6
:101CD0005BFE0E4D28626088FEF756FE6862A088A3
:101CE000FEF752FEA862E088FEF712FEE862208945
:101CF000FEF70EFE28636089FEF70AFE6863BDE802
:101D0000704000F005B970BD74070020000000208D
:101D10007047704770B5026804461068D16853690F
:101D200010F00F0F50D003F0010501F49076354309
:101D30005DD0C20705D0CA0503D5E26B42F00102AF
:101D4000E263420705D5DA0703D0E26B42F00202F4
:101D5000E263820705D5DA0703D0E26B42F00402A2
:101D6000E263020705D5DA0703D0E26B42F008020E
:101D7000E263E26B002A33D0800604D5880602D5E0
:101D8000204600F0EEFB20684069E16BC0F3801054
:101D9000090700D428B3204600F0D5FB206841692C
:101DA00049061AD5416921F040014161606BA0B13B
:101DB0001B494163606BFEF7FBFF002810D0606B8E
:101DC000416BBDE870400847830610D58B060ED5E1
:101DD0002046BDE8704000F0C4BB2046FFF799FFE5
:101DE00070BD2046FFF795FF0020E06370BD03063D
:101DF00006D50B0604D52046BDE8704000F058BC5F
:101E00004006F3D54806F1D5D168204621F04001BF
:101E1000D160202184F8391000F077F870BD0000FF
:101E20003725000870B5040004D094F83900002567
:101E300010B106E0012070BD84F83850204600F053
:101E400023F8242084F839002068C16821F4005167
:101E5000C160204600F0D0FB2068016921F4904168
:101E600001612068416921F02A0141612068C1684F
:101E700041F40051C160E563202084F8390084F802
:101E80003A00002070BD000030B585B000240094F9
:101E90000194029403940068174988422AD1174894
:101EA000816941F480418161816901F4804104913B
:101EB000816941F0080181618069114D00F00800DD
:101EC0000490402000900220019003200390694676
:101ED0002846FFF7DBF88020CDE900046946284654
:101EE0000294FFF7D3F80748416841F0E06141F000
:101EF0000401416005B030BD0038014000100240CF
:101F0000000C01400000014070477047FEE70000F0
:101F10002DE9FE4F9E4CB4F90250B5F5C87F20DA8A
:101F200094F90000FEF70DFB04F18C01064651F810
:101F30002510FEF771F9A063204604F18C01B0F979
:101F40000200642D01EB8001304602DAD1F8B014B2
:101F500003E0A1F58051D1F8701EFEF75DF9E06352
:101F600001E0002060806088401C6080894800900B
:101F700004F1200007C8FEF7F3FC206404F12C00F4
:101F800007C8FEF7EDFC6064D4E90901FEF7D6FC52
:101F9000A064D4E90C01FEF7D1FC0746E064206C94
:101FA00021698346FEF732F90646D4E90201FEF7BD
:101FB00033F905463146FEF72FF9A169FEF729F9F5
:101FC00006462065A06C61698246FEF71FF901464E
:101FD0002846FEF721F9E169FEF71BF90546606521
:101FE0006B483146843040688146FEF715F96A4EE9
:101FF00002905946D6F80C804046FEF70DF9019044
:10200000B668616C3046FEF707F90199FEF7ACF847
:102010000299FEF7A9F8A06529464846FEF7FCF8A4
:10202000814651464046FEF7F7F8054639463046A8
:10203000FEF7F2F82946FEF797F84946FEF794F8BE
:10204000E065C4E904BADFF850A10025AAF1180A36
:1020500005EB45065746F419B346A078FEF77AFA21
:1020600081466078FEF776FA8046B85DFEF772FA30
:102070004A464146FEF774FC454E3066A078FEF7AE
:1020800069FA07466078FEF765FA3946FEF756FCAE
:102090000746706696F90100FEF753FA8146316EE5
:1020A000FEF7BAF88046706748463946FEF7B4F83E
:1020B0000746B06706F17C00414640688146FEF75E
:1020C000ABF8B16DFEF750F88046F06639464846E9
:1020D000FEF7A2F8F16DFEF747F801463067F06BA6
:1020E000FEF794F80146FEF797F807464146B06BB5
:1020F000FEF78CF80146FEF78FF83946FEF734F804
:10210000B0660099FEF768FA09D2B06E0090301DF3
:102110001AF80B10017061784170A17881706D1C04
:10212000072D95DD1A4C1D4D241D4FF4806122783A
:102130002846FFF79BF8207820B30022184E4FF472
:1021400000413046FFF792F8627871152846FFF794
:102150008DF86078C0B100224FF480413046FFF71F
:1021600085F8A2784FF480712846FFF77FF8A078B1
:1021700060B1002203B03046BDE8F04F4FF400518B
:10218000FFF774B80122D9E70122E5E70122F1E760
:102190000000002000007A44E4060020000801400E
:1021A000000C0140FEB500241F48009401941D4915
:1021B0000294016089158160012505730475062666
:1021C00006614FF460214460C161FEF795FCCDE9E2
:1021D00000450524694614480294FEF70BFC00955F
:1021E0000225694610480195FEF704FC0095032579
:1021F00069460D480195FEF7FDFB009504256946EB
:1022000009480195FEF7F6FBCDE9005469460648FA
:10221000FEF7F0FBCDE9004669460348FEF7EAFB0E
:10222000FEBD000000240140040700202DE9F0431A
:1022300085B000242E48009401940294039481698F
:1022400041F020018161816901F0200104918169DF
:1022500041F004018161816901F004010491816907
:1022600041F0080181618069DFF8889000F0080082
:102270000490012280214846FEF7F8FFDFF87880BD
:1022800000224FF203014046FEF7F0FF00224FF418
:10229000E0614846FEF7EAFF4FF4D06001250326CF
:1022A000CDE90005CDE9024669464846FEF7EEFE57
:1022B000022703970096CDE9015469464046FEF790
:1022C000E5FE4FF47040CDE90005CDE902466946D0
:1022D0004046FEF7DBFE2802CDE90005CDE90247C6
:1022E00069464846FEF7D2FE05B0BDE8F08300001F
:1022F0000010024000080140000C014010B586B0FB
:1023000000241248009401940294039404940E490A
:102310000594C0E9001440F60F61C0E90241046170
:1023200044618461FFF76FFB4FF480500090694671
:102330000648FFF7A1FB049404A904480594FFF79D
:1023400041FB06B010BD0000002C01403407002006
:1023500010B586B0002411480094019402940394AF
:1023600004944FF080410594C0E9001440F60F61D9
:10237000C0E9024104618461FFF745FB4FF48050DE
:10238000009069460548FFF777FB049404A90348C9
:102390000594FFF717FB06B010BD0000740700207E
:1023A000FEE7704770477047FEF76CBF30B593B0DB
:1023B00028216846FDF7CDFE14210AA8FDF7C9FEC5
:1023C000002401200F9410941194010412948DE8BC
:1023D000130004904FF4E010CDE908100225079592
:1023E0006846FFF749F90F20CDE90A056802CDE9F3
:1023F0000C4002210AA80E94FFF752F8A80311908E
:102400000F950FA8FEF7D6FF13B030BD0D48016839
:1024100041F00101016041680B4A114041600168CF
:102420000A4A11400160016821F48021016041687D
:1024300021F4FE0141604FF41F0181600449C00393
:1024400008607047001002400000FFF8FFFFF6FE32
:1024500008ED00E00148FFF77BBB000034070020D7
:10246000F0B50268164B174C174D4FF08047984255
:1024700005D0B84203D0A04201D0A84203D122F037
:1024800070064A683243984205D0B84203D0A04251
:1024900001D0A84203D122F44074CA6822434C6997
:1024A00022F08002224302608A68C2620A68826265
:1024B000984201D10969016301214161F0BD000029
:1024C000002C0140000400400008004010B5846862
:1024D00042EA032224F47F440A432243826010BD6F
:1024E000826822F070020A4342F00701816070475F
:1024F00010B5036A046A24F001040462846924F0BC
:10250000F00444EA021423F00A020A4384610262DE
:1025100010BD10B5036A23F0100303628369046AD7
:1025200023F4704343EA023224F0A00343EA01118A
:102530008261016210BD10B5406A0021C185C1846D
:10254000FFF7E7FB10BD0168CA6822F49072CA6009
:1025500001684A6922F001024A61202180F83A109C
:10256000704710B590F83A10222901D0022010BD12
:102570008168B1F5805F11D00169002901681FD021
:10258000496801F07F03816A4A1C82620B70C18D29
:10259000491E0904090CC18518D02BE00269816A23
:1025A000002A0268526805D0D2B20A80816A491CAA
:1025B0008162ECE7C2F308020A80816A891CF7E7AE
:1025C0004A68816A4B1C83620A70E0E70168CA6846
:1025D00022F02002CA600168CA6822F48072CA60D0
:1025E00001684A6922F001024A61202180F83A100C
:1025F000FFF78AFC002010BD2DE9F0410446006879
:102600000169E26821F44051114301612169A06828
:102610000843616908432168CA6841F20C639A4320
:102620000243CA6020684169A26921F440711143E4
:1026300041611E49206864253226884202D1FEF796
:10264000D5FF01E0FEF7C2FF00EBC00101EB001176
:1026500060686FF018078000B1FBF0F2B2FBF5F292
:10266000B1FBF0F37A4303EB8202B1FBF0F306EB2C
:102670000212B2FBF5F2B3FBF5F302F0F00202EB4B
:102680000312B1FBF0F3B1FBF0F0B0FBF5F07843CF
:1026900003EB800006EB0010B0FBF5F0216800F0C2
:1026A0000F0010448860BDE8F08100000038014050
:1026B00090F83910212901D0022070478168B1F5C6
:1026C000805F016A0BD04A1C02620268097851607F
:1026D000C18C491E0904090CC1840ED017E0098879
:1026E0000268C1F30801516001690029016A02D042
:1026F000491C0162ECE7891CFBE70168CA6822F00B
:102700008002CA600068C16841F04001C1600020D9
:10271000704700000148FFF7FDBA0000B407002031
:10272000FEE70907090E002804DB00F1E02080F82D
:102730000014704700F00F0000F1E02080F8141D35
:10274000704702E008C8121F08C1002AFAD170477A
:102750007047002001E001C1121F002AFBD1704721
:1027600008B5FEF797FDFFF721FEFFF75FFD49482B
:10277000416941F0010141614069002200F001001E
:10278000009011460B20FEF7E3FD0B20FEF7D2FD73
:10279000FFF708FDFFF7B2FDFFF7DAFD3F483E49BE
:1027A0000C2201604FF4E131416000218160C16081
:1027B000C0E904128161C161FFF734FB00221146B8
:1027C0001920FEF7C5FD1920FEF7B4FD00221146C1
:1027D0002520FEF7BDFD2520FEF7ACFD304C012283
:1027E00080212046FEF742FD2C4906224031A1F10E
:1027F000F000FEF757FA25152A4F6E014FF40078C6
:102800004FF480494FF4807A4FF4005B0022294650
:102810002046FEF72BFD002231463846FEF726FD06
:10282000002241462046FEF721FD00224946384657
:10283000FEF71CFD012251462046FEF717FD00223F
:1028400059463846FEF712FD0120FEF70DFC002226
:1028500029462046FEF70AFD002231463846FEF79B
:1028600005FD002241462046FEF700FD00224946B4
:102870003846FEF7FBFC002251462046FEF7F6FCE8
:10288000002259463846FEF7F1FC0120FEF7ECFB2A
:10289000BCE700000010024000380140B4070020EF
:1028A00000080140000C0140000000000000000092
:1028B00001020304060708090000000001020304E6
:1028C000E028000800000020040700007C07000842
:1028D000B82D000804070020440500005227000816
:1028E00030040C180001000A6952491D3900409C4F
:1028F0004600012009B398D83DA6D5903C04200598
:1029000054A9A9BE88100D499D803C499D003DEE0B
:10291000EB403D0C00FF003D9CC4A03D80B7C03D96
:1029200065AAE03DA54E003E1748103E5227203EC6
:102930008E06303EC9E53F3ECEAA4F3E9B555F3ED8
:1029400069006F3E36AB7E3EE71D873E17D98E3E4F
:102950002B87963E3F359E3E39D6A53E166AAD3E44
:10296000F4FDB43E9A77BC3E41F1C33EB150CB3E3C
:1029700021B0D23E7502DA3E933AE13EB072E83EB3
:102980009790EF3E7DAEF63E2DB2FD3ED34D023F19
:102990008FC2053F302A093F448B0C3FC9E50F3FEA
:1029A0003333133F107A163FD0B3193F04E71C3F6F
:1029B0001B0D203FA52C233F143F263FF54A293FFE
:1029C000BA492C3F643B2F3F8126323F8104353F7B
:1029D00067D5373FBE9F3A3F6D563D3F8E06403F1D
:1029E00093A9423F7D3F453F4BC8473F8C4A4A3FF2
:1029F00024B94C3FA01A4F3F006F513FD3BC533F07
:102A0000FDF6553F0B24583FFE435A3FD6565C3FD8
:102A1000925C5E3F32308355603FB840623F93180E
:102A2000643F54E3653FF9A0673F8351693FF1F488
:102A30006A3FB6846C3F5F076E3F60766F3FD3DEC0
:102A4000703F9C33723F4A7B733F4FAF743F39D620
:102A5000753F07F0763F2BF6773F35EF783F95D4FB
:102A6000793FDAAC7A3F03787B3F832F7C3FE8D90C
:102A70007C3FA4707D3F44FA7D3FC9767E3FA4DF52
:102A80007E3FD7347F3FEE7C7F3FE9B77F3F3BDF20
:102A90007F3F72F97F3F000080082110211821201C
:102AA00021282130213821402148215021582160FE
:102AB000216821702178218021882190219821A0EE
:102AC00021A821B021B821C021C821D021D821E0DE
:102AD00021E821F021F825002508251025182520BA
:102AE000252825302538254025482550255825609E
:102AF000256825702578258025882590259825A08E
:102B000025A825B025B825C025C825D025D825E07D
:102B100025E825F025F82900290829102918292059
:102B2000292829302938294029482950295829603D
:102B3000296829702978298029882990299829A02D
:102B400029A829B029B829C029C829D029D829E01D
:102B500029E829F029F82D00034D08032E000C0365
:102B60005E3C20031EBC20031EBD200312BD0C1EB4
:102B7000BD200312BD301EBD200312BD4012BE4851
:102B80001EBE20031EBE20031EBE200312BE6812FE
:102B9000BE7012BE781EBE200312BE8812BE901EEA
:102BA000BE20031EBE200312BEA81EBE20031EBEF2
:102BB000200312BEC01EBE200312BED012BED81EFD
:102BC000BE20031EBE20031EBE200312BEF816BE8A
:102BD000001EBE20031EBE200316BF1816BF201EF7
:102BE000BF200316BF3016BF381EBF200316BF48D4
:102BF00016BF501EBF200316BF601EBF20031EBF9E
:102C0000200316BF7816BF801EBF200316BF901E7C
:102C1000BF20031EBF200316BFA81EBF200316BF80
:102C2000B816BFC01EBF200316BFD01EBF2003169C
:102C3000BFE01EBF20031EBF200316BFF81EBF202B
:102C4000031EBF20031ABF101ABF181EBF20031E89
:102C5000BF20031ABF301EBF20031EBF20031ABFB0
:102C6000481EBF20031ABF581ABF601EBF20031E94
:102C7000BF20031ABF781ABF801ABF881ABF901AE4
:102C8000BF981EBF20031EBF20031EBF20031ABF14
:102C9000B81ABFC01EBF20031EBF20031ABFD81E14
:102CA000BF20031EBF20031EBF20031EBF20031E24
:102CB000BF20031EBF08031EBF10031EBF18031E44
:102CC000BF20033108211021182120212821302183
:102CD000382140214821502158216021682170214C
:102CE00078218021882190219821A021A821B0213C
:102CF000B821C021C821D021D821E021E821F0212C
:102D0000F8250025082510251825202528253025FB
:102D100038254025482550255825602568257025EB
:102D200078258025882590259825A025A825B025DB
:102D3000B825C025C825D025D825E025E825F025CB
:102D4000F82900290829102918292029282930299B
:102D5000382940294829502958296029682970298B
:102D600078298029882990299829A029A829B0297B
:102D7000B829C029C829D029D829E029E829F0296B
:102D8000F82D00034D08032E000C032006BC0100A3
:102D9000000104510712010321101C060053797B26
:102DA0003F6C061EBD6406223E0C21146E10850683
:082DB00000040024F4000000FF
:04000005080000ED02
:00000001FF
